:100000000C9455040C946F220C949C040C9490282E
:100010000C949C040C949C040C949C040C949C04E0
:100020000C949C040C949C040C94F7200C94B32026
:100030000C9448220C949C040C949C040C949C04F6
:100040000C949C040C949C040C949C040C949C04B0
:100050000C949C040C9424220C949C040C949C04FA
:100060000C949C040C949C040C949C040C949C0490
:100070000C949C040C949C040C949C040C949C0480
:100080000C949C040C949C040C949C040C949C0470
:100090000C949C040C949C040C949C040C949C0460
:1000A0000C949C040C949C040C949C040631FF0951
:1000B00074A1010975150026FF00952075088102BD
:1000C0000976150026FF00952075089102C00501EC
:1000D0000902A10185020901A100050919012908E8
:1000E00015002501950875018102050109300931C6
:1000F0001581257F95027508810609381581257FB0
:10010000950175088106050C0A38021581257F9531
:100110000175088106C0C005010980A10185031988
:10012000012AB700150126B700950175108100C09E
:10013000050C0901A101850419012AA00215012657
:10014000A002950175108100C005010906A1018575
:1001500005050719E029E7150025019508750181B6
:10016000020507190029EF1500250195F075018199
:10017000020508190129059505750191029501757A
:10018000039101C005010906A101050719E029E74E
:1001900015002501950875018102950175088101F9
:1001A0000507190029FF150026FF0095067508812F
:1001B000000508190129059505750191029501753C
:1001C000039101C0000000000000000000000000DA
:1001D000000000000000000000000000000000001F
:1001E00000000000000000007E0F00D4FFFFFFC7EA
:1001F0000000007800000000000000002A2B28000A
:1002000000000000000000000000000000000029C5
:10021000000000002C1E3420212224342627252E05
:10022000362D3738271E1F2021222324252633333D
:10023000362E37381F0405060708090A0B0C0D0E69
:100240000F101112131415161718191A1B1C1D2F35
:100250003130232D350405060708090A0B0C0D0E55
:100260000F101112131415161718191A1B1C1D2F15
:100270003130354C0102E061630103E000203D3E76
:10028000207B7D00732F5E20202F003A73702000AA
:100290003A71010128003A7701012800444542558E
:1002A000473A2064697361626C65642E0A004445B4
:1002B0004255473A20656E61626C65642E0A000003
:1002C0000014001A000800150017000000040016B2
:1002D00000070009000A0000001D001B00060019AD
:1002E0000005000000000000002B6101512868009B
:1002F00000130012000C0018001C00000034000F56
:10030000000E000D000B0000003800370036001012
:10031000001100000000000000297402512C72003E
:10032000001E001F002000210022000000290028DC
:10033000004B004E002C0000001E021F0220022174
:100340000222020000000000000100010001000084
:10035000002700260025002400230000002D004F68
:1003600000520051005000000038006300250224B4
:100370000223020000000000000100035101000000
:1003800000655D635D000000002C050000E300E2F5
:1003900000E0002B0039000000645D665D210A204A
:1003A0000A675D0000000000000100035101000029
:1003B000002E002D00330233002800000030002FF3
:1003C00000E500350034000000270226023102312A
:1003D000002A0000000000000001000100010000F0
:1003E00000005CC65C0000000000000000C45CC7A8
:1003F0005CC85C00000076000000000000E100E244
:1004000000000000000000000001000100010000E9
:100410000014090000F200F100000000000000F0EC
:1004200000ED00EE00EF000000000000004F15514D
:10043000155015000000000000010001000100003F
:1004400000000000000000000000000000000000AC
:10045000000000000000000000000000000000009C
:10046000000000000000000000F200F300F10000B6
:10047000000000000000000000000000000000007C
:10048000000000000000000000000000000000006C
:10049000000000000000000000F200F300F1004F37
:1004A0006E6573686F743A206163746976653A208B
:1004B00025640A000A002530325820006B657962F5
:1004C0006F6172645F7265706F72743A200054617C
:1004D0007267657420636F6E6E65637465640D0A80
:1004E0000054617267657420646973636F6E6E6532
:1004F000637465642C207468726F74746C696E67C1
:1005000020636F6E6E656374696F6E2061747465CD
:100510006D7074730D0A006D685F6175746F5F6252
:100520007574746F6E733A206F66660A004661696F
:100530006C656420746F206578656375746520252B
:10054000730A0020636F6D6D616E643A2025582C2C
:1005500020726573756C743A2025582C2065727270
:100560006F723A202558200A00707332206D6F7523
:1005700073652064697361626C65206461746120D5
:100580007265706F7274696E670020636F6D6D6164
:100590006E643A2025582C20726573756C743A206D
:1005A00025582C206572726F723A202558200A0057
:1005B000707332206D6F757365207365742073637B
:1005C000616C696E6720323A310020726573756C18
:1005D000743A2025582C206572726F723A20255883
:1005E000200A007073325F6D6F7573655F696E69A5
:1005F000743A207265616420446576494400207233
:100600006573756C743A2025582C206572726F7270
:100610003A202558200A007073325F6D6F7573653C
:100620005F696E69743A20726561642042415400CA
:1006300020636F6D6D616E643A2025582C207265C1
:1006400073756C743A2025582C206572726F723A5B
:10065000202558200A007073325F6D6F7573655FD7
:10066000696E69743A2073656E64696E672072659D
:10067000736574004B6579626F6172642073746195
:1006800072742E0A000A0025303862003A200025D4
:10069000303258000A722F6320303132333435360D
:1006A000370A005D0A00253032580020002530321C
:1006B00058002000253032580020002530325800E4
:1006C0007C0025303258007073325F6D6F75736532
:1006D0003A205B006D685F6175746F5F627574745A
:1006E0006F6E733A206F6E0A007073325F6D6F75B4
:1006F00073653A206661696C20746F2067657420A9
:100700006D6F757365207061636B65740A000A0014
:1007100025303258006B6579626F6172645F736572
:10072000745F6C65643A20005B735D00290A0025E4
:1007300075002F002575005D280025640020002528
:100740006400200025640020002564007C00253022
:100750003258006D6F7573656B6579205B62746EDE
:100760007C782079207620685D287265702F61631F
:100770006C293A205B0020636F6D6D616E643A20D6
:1007800025582C20726573756C743A2025582C20DE
:100790006572726F723A202558200A0070733220F9
:1007A0006D6F75736520656E61626C652064617440
:1007B00061207265706F7274696E67007062756631
:1007C0003A2066756C6C0A006164645F6B65795FE2
:1007D0006269743A2063616E2774206164643A2010
:1007E000253032580A0064656C5F6B65795F626919
:1007F000743A2063616E27742064656C3A2025305A
:1008000032580A005B435D005B445D005B535D0052
:100810005B575D005B525D0009025B00030100A0B5
:10082000FA0904000001030101000921110100017E
:100830002240000705810308000A090401000103A2
:1008400000000009211101000122B6000705820302
:1008500020000A090402000203000000092111011E
:10086000000122220007058303200001070503037E
:10087000200001120100020000000853460100019F
:1008800000010200010C0343006F0072006E00655E
:10089000000000100366006F006F007300740061B9
:1008A000006E000000040309040011241FBECFEFF6
:1008B000DAE0DEBFCDBF04B603FE27C08091E202BE
:1008C0009091E302A091E402B091E5028730904B51
:1008D000A740B04BD1F41092E2021092E3021092C2
:1008E000E4021092E50214BE84B7877F84BF0FB67E
:1008F000F894A895809160008861809360001092C0
:1009000060000FBEE0E0F8E3099511E0A0E0B1E07F
:10091000E0EAF5E502C005900D92A439B107D9F7D8
:1009200022E0A4E9B1E001C01D92A23EB207E1F7C6
:100930000E94F8220C94AA2A0C940000FF93EF93D3
:10094000E0919401F0919501309709F00995EF91AC
:10095000FF910895FC018591803011F0EFDFFBCF0E
:100960000895FF27E0E230E247FF0CC0419597FF72
:1009700009C0EDE26095709580959095611D711D9F
:10098000811D911D27FF02C0219530E350E2AA2767
:10099000660F771F881F991FAA1FA41710F0A41BAA
:1009A00063955A95A9F7AA3008F0A95FA05DAF93A7
:1009B000F395611571058105910541F7ED3211F44B
:1009C000EF93F395F21718F43F93F395FBCF8F91C4
:1009D000B5DFFA95E1F70895E991F99185918030B5
:1009E00021F0853219F0AADFF9CF089520E0E894CC
:1009F00055915532C1F3503311F4689455915A33DF
:100A000048F4505390F3220F022E220F220F200D94
:100A1000250FF4CF0EF4219589919991533619F34E
:100A2000533729F1533559F1BC0188279927E894A8
:100A30005C3621F48991999168945591543639F432
:100A400046EF7EF077FF0DC08FEF9FEF0AC055375E
:100A50004AE039F0583540E121F0523642E009F0E1
:100A60000895FF93EF937DDFEF91FF91B7CFFF9351
:100A7000EF93FC0181918030B9F360DFFBCFFF93EE
:100A8000EF9368DFF1CFDF93CF93CDB7DEB7259635
:100A9000A3DFCF91DF910895FC01AC014C5F5F4F64
:100AA0008FEF91E32191822728E030E087FF09C092
:100AB000880F892721503109C9F7E417F50791F705
:100AC0000895880FF7CFE8EDF0E080818E7F808376
:100AD0001092E2001092DA001092E100A0EEB0E075
:100AE0008C9181608C9380818F77808319BCA7ED76
:100AF000B0E08C918E7F8C9380818F7E808310926A
:100B0000B00208952091E4003091E50095E6A90136
:100B10002091EC00822F817020FF06C08091E800B8
:100B200080FF06C080E008952091E80022FD1AC0F1
:100B30008091D502882389F0853089F08091EB007F
:100B400085FD0FC02091E4003091E5004217530766
:100B5000F9F29150E1F684E0089582E0089583E08F
:100B6000089581E00895EF92FF920F931F93CF9322
:100B70007C018B010E948205C82F811117C08091D2
:100B8000E80085FD0BC08091E8008E778093E80037
:100B90000E948205882399F3C82F08C0F70181912C
:100BA0007F018093F1000150110949F78C2FCF91FB
:100BB0001F910F91FF90EF9008958091D70287FFCA
:100BC00013C08091E80082FF06C08091E8008B7717
:100BD0008093E80004C08091D5028111F2CF08957E
:100BE0008091D5028823D9F38091E80080FFF8CF67
:100BF0008091E8008E77ECCF982F9093E900242F16
:100C0000762F50E0891731F07091EC002091ED00C3
:100C10005091F00021FD07C09F5F973071F78093DE
:100C2000E90081E008953091EB003E7F3093EB00C6
:100C30003091ED003D7F3093ED003091EB0031605D
:100C40003093EB007093EC002093ED005093F00094
:100C50002091EE0027FDE0CF80E00895CF92DF9253
:100C6000EF92FF920F931F93CF93DF93C8EDD0E0E5
:100C700088818F7E8883E7EDF0E0808181608083CA
:100C800084E082BF81E08093B00288818E7F888378
:100C900002EE10E0F80110821092DA0081EEC82E08
:100CA000D12CF601108288818F77888388818068B3
:100CB000888388818F7D888319BC1092D502109219
:100CC000D6021092D4021092D30290EEE92EF12CAB
:100CD000F70180818B7F808388818160888342E0F7
:100CE00060E080E00E94FC05F60180818E7F8083B9
:100CF000F801808181608083808188608083F70132
:100D000080818E7F8083888180618883DF91CF910D
:100D10001F910F91FF90EF90DF90CF900895FC010D
:100D20008091DD029091DE0286179707A0F0611591
:100D3000710529F49091E8009E779093E80090E087
:100D40006115710551F4911108C08091E80082FF8E
:100D500034C080E00895BC01F2CF8091D502882391
:100D6000C1F18530C1F18091E80083FD30C08091F0
:100D7000E80082FDEACF8091E80080FFE1CF80911A
:100D8000F3002091F200382F6115710519F0283019
:100D9000310558F091E02830310509F090E02091BC
:100DA000E8002E772093E800CBCF81918093F1006B
:100DB000615071092F5F3F4FE7CF8091D5028823A3
:100DC00041F0853041F08091E80083FFBECF81E0A3
:100DD000089582E0089583E008958091B202089515
:100DE0009C014FB7F8948091A4029091A502A09124
:100DF000A602B091A7024FBF821B930B08952FB795
:100E0000F8946091A4027091A5028091A60290913D
:100E1000A7022FBF08952FB7F8948091A402909154
:100E2000A502A091A602B091A7022FBF089520911C
:100E3000A0023091A1022817390771F09093A10206
:100E40008093A002E0919E02F0919F02309721F0E2
:100E50000084F185E02D0994089520919C02309141
:100E60009D022817390771F090939D0280939C0290
:100E7000E0919E02F0919F02309721F00680F78169
:100E8000E02D09940895E0919E02F0919F02309721
:100E900039F022E0DC012C930480F581E02D0994E7
:100EA00008955198599A08955998519A08955098CB
:100EB000589A0895409173028D3E79F4809174029E
:100EC00087FF11C01092740241110FC010926C0282
:100ED00010926A021092690208C08E3E81F48091DD
:100EE000740218167CF3442381F08091750290916E
:100EF0007602892B09F05AC01092680208958F3E3D
:100F000049F447FFF0CF109273028091740281116F
:100F1000ECCFDCCF803F19F41416ACF3E4CF909102
:100F20007502893F29F41916F4F610927502DBCF89
:100F30008A3F19F497FFD7CFF8CF909176028B3F75
:100F400029F497FFD0CF10927602CDCF8C3F19F4C1
:100F50001916CCF3C8CF9FE0980F983090F4815FBA
:100F6000990B21E030E0B90102C0660F771F8A9526
:100F7000E2F7CB01809590917202892380937202EF
:100F8000B2CF8D3F31F480916B028E7F80936B02E4
:100F9000AACF8E3F21F480916B028D7FF7CF8F3FD8
:100FA00009F0A1CF80916B028B7FF0CF08958091E3
:100FB0006B0280FD16C081FD16C082FD16C08091B7
:100FC00068028823A1F0883280F428E0829FC00163
:100FD000112468E270E00E94242A862F672B39F0E2
:100FE000089582E0089584E0089588E0089581E0FE
:100FF000089580916B0280FD18C081FD18C082FDAC
:101000001AC080916C028823A1F08431A0F42AEFE9
:10101000829FC001112481152AE0920764F464E1E3
:1010200070E00E94242A862F08958EE308958DE7AC
:10103000089589E108958FE70895CF93DF93C82F2E
:101040008091690290916A02892B31F40E940B070A
:1010500090936A0280936902CD3E41F40E94F907A1
:10106000819580937402DF91CF910895CE3E19F45B
:101070000E94F907F6CFCF3E31F40E94F90781951F
:1010800080937302F0CFC03F19F40E94F907F8CFA4
:10109000C93F29F40E94D70780937502E4CFCA3F65
:1010A00021F40E94D7078195F7CFCB3F31F40E94FE
:1010B000D707819580937602D6CFCC3F19F40E9452
:1010C000D707F8CF8FE08C0F883070F4C15FDD0B4D
:1010D00021E030E001C0220FCA95EAF78091720248
:1010E000822B80937202BFCF80916B028160CD3FD3
:1010F00059F080916B028260CE3F31F0CF3F09F012
:10110000B2CF80916B02846080936B02ACCFF89475
:10111000E82FE295EF70F0E031A1282F2F7081E0E9
:1011200090E001C0880F2A95EAF7982F90959323B5
:1011300091A392A1892B82A3789408959091A802FB
:1011400092FF06C0282F28712830F9F4877F846029
:1011500093FF06C0282F28712831F1F4877E84611F
:101160002091A90220FF06C0382F38713830D9F4F9
:10117000877F816021FF06C0282F28712831D1F494
:10118000877E816194FD877E0895282F2471243005
:10119000F9F68B7F8860DCCF282F2471243101F78A
:1011A0008B7E8861DDCF382F3171313019F78E7F1A
:1011B0008860E0CF282F2171213121F78E7E886150
:1011C000E1CFCF93DF93EC0182389105A9F1D8F5F7
:1011D0008133910509F496C048F58932910509F4E7
:1011E0008AC08A9709F495C0C11521E5D20708F095
:1011F000BCC0C11530E5D30708F014C1C83ED10505
:1012000008F09CC0C13ED10560F5C83AD10508F090
:1012100087C0C53AD10508F0FDC0C130D10509F13C
:101220002097F9F0C430D105E0F440C08533910532
:1012300009F45AC0C997C1F68091A802837089F059
:10124000C0EED0E00EC0833E910599F170F4803E6F
:10125000910501F1823E910539F68091A80282FD47
:1012600021C0CE01DF91CF910895863E910561F1B5
:10127000873E910571F1843E910509F0B5CF8091CB
:10128000A90281FFEECF8091A802C7EED0E084FDD5
:101290000DC0E7CF8091A80280FD12C19091A902F4
:1012A00090FFDFCFC3EED0E084FFDBCFD0E0C0E023
:1012B000D8CF8091A80282FD06C19091A90290FD2D
:1012C000BFCF84FFCECFF2CF8091A80283FDDDCFC8
:1012D000C8CF8091A80283FDF9C09091A90291FF27
:1012E000F0CFC4EED0E0BDCF8091A80285FFB9CF8A
:1012F000C9E2D0E0B6CF8091A80285FFB2CFC5E3A6
:10130000D0E0AFCF8091A80286FFABCFCAE2D0E099
:10131000A8CF8091A80286FFA4CFC1E3D0E0A1CFDF
:10132000CF3BD10518F6C85AD0E0CC0FDD1FCA5B01
:10133000DE4F0990D881C02DD46493CFC11540E20F
:10134000D40758F4C11581E0D80708F08ACFCD3E04
:10135000D10508F4ABCFD06584CFC11590E4D9078F
:1013600008F4A4CFDF70D06A7CCFC11525E5D20781
:1013700000F5C11534E5D30708F08AC0C11543E56F
:10138000D40708F071C0C11582E5D80708F467C01A
:10139000CE018370992721E030E002C0220F331F75
:1013A0008A95E2F7C695C69580E2C89FE0011124B0
:1013B00052C0C11599E5D907A8F4C11528E5D2078F
:1013C00008F06BC0C11536E5D30708F06FCF8C2F3E
:1013D0000E949E08C82FD0E0DC2FCC27CC27DF71DD
:1013E000D0623FCFC1154AE5D40708F45BC0CE01F7
:1013F00090568115904208F059CF8D2F8F710E9421
:101400009E0890E0982F882788279F719C012C2B9D
:10141000E901E6CFC55AD0E0CD5BDE4FC881D0E010
:10142000D0641FCFCE01E4E096958795EA95E1F769
:1014300083702C2F26952695237040E2249F9001DF
:101440001124382B8C2F8370C1E0D0E002C0CC0F68
:10145000DD1F8A95E2F7C22BD32BDC6802CFDC2F8D
:10146000CC27C16FD06AFDCECE018370992721E0D1
:1014700030E002C0220F331F8A95E2F7C695C69569
:1014800090E2C99FE0011124C22BD32BDA68E9CE88
:10149000DC2FCC27C46FD06AE4CEDC2FCC27C06F02
:1014A000D06ADFCE8C2F8F700E949E0834E0D695D4
:1014B000C7953A95E1F7CF709C2FEC01D069D1CE5A
:1014C000C9E3D0E0CECEC2EED0E0CBCEC6EED0E0C7
:1014D000C8CE80911202811110921202089580915B
:1014E0000D029091DC01981301C008958F5F877001
:1014F000FACFAF92BF92CF92DF92EF92FF920F930B
:101500001F93CF93DF93C0903B02D0903C02E090BA
:101510003D02F0903E0240911302509114026091FE
:10152000150270911602C42AD52AE62AF72ACFE1BD
:10153000D0E0082F10E026E0929F000D111D11242D
:1015400090E3A92EBC2ED701C6010C2E04C0B6957F
:10155000A795979587950A94D2F780FD0FC021979C
:1015600088F7B12C8B2DDF91CF911F910F91FF90B8
:10157000EF90DF90CF90BF90AF900895AC9EF001B8
:10158000AD9EF00D1124E00FF11FEE0FFF1FE1548F
:10159000FD4F859194910E94E108019701F3E2CFFC
:1015A000CF93DF93EC010E94790AEC2FF0E096E0F4
:1015B000D99FE00DF11D112490E3899FE00DF11DED
:1015C0001124EE0FFF1FE154FD4F85919491DF919F
:1015D000CF910C94E108E92FEE0FE90FEE0F8E0F7B
:1015E000982F977086958695869525E0829FF001C5
:1015F0001124E854FE4F50E040E080E0219130E0BB
:10160000092E02C0369527950A94E2F721703327F8
:10161000042E01C0220F0A94EAF7822B4F5F5F4F1E
:101620004530510559F70895E92FEE0FE90FEE0FF8
:101630008E0F982F977041E001C0440F9A95EAF7FA
:1016400086958695869595E0899FF0011124E8544A
:10165000FE4F30E020E070E05191DF011197CB01A7
:10166000022E02C0969587950A94E2F781708195C3
:101670008527842385278C932F5F3F4F25303105A5
:1016800059F70895FC01808191810E94D00A292F89
:101690002F7092959F7092509E3078F4E92FF0E071
:1016A000E455F54D0C94382A803F19F020F4883E1B
:1016B00020F481E00895843FE1F380E00895883EBE
:1016C000C0F3813FD1F7F5CF822F86958695869519
:1016D0000895829590E09C01220F331F220F331F43
:1016E0002C7C95958795959587958373282B30E06D
:1016F000C901880F991F8A7A359527952575822B00
:1017000008959FB7F8941092AE029FBF9091D502B2
:10171000943009F048C02091E9002F703091EC001E
:10172000932F917030FD90E8922B23E02093E900F5
:101730002091EB0020FF34C02091EE0027FF30C045
:101740002091AD02222321F02091E80025FF28C03E
:101750001092AD0226E03091E80035FF14C080936E
:10176000F1008091E80085FD27C08091E80080FFAE
:10177000FCCF8091E8008E778093E8009F70909373
:10178000E90080E008953091D502343049F4309179
:10179000EB0035FD05C0215041F481E08093AD029E
:1017A0009F709093E9008FEF0895EFE9FFE0319784
:1017B000F1F700C00000CFCF8FB7F89421E020935D
:1017C000AE028FBFDBCF9091D502943031F580937C
:1017D000AA027093AC026093AB0282E08093E900AE
:1017E0008FEF9091E800815095FD06C095ED9A9598
:1017F000F1F700008111F5CF8091E80085FF0DC061
:1018000050E040E063E070E08AEA92E00E94B305B5
:101810008091E8008E778093E8000895BC0184E011
:101820000C94E30BBC0183E00C94E30B9C0182E07D
:101830008093E9009FEF8091E800915085FD06C0FC
:1018400085ED8A95F1F700009111F5CF8091E800C0
:1018500085FF0CC050E040E066E070E0C9010E94E6
:10186000B3058091E8008E778093E8000895CF93C8
:10187000DF93EC0180912A018823B1F18091A802C5
:1018800087FF32C060E282E08093E9008FEF9091A1
:10189000E800815095FD06C095ED9A95F1F700009E
:1018A0008111F5CF8091E80085FF1BC080912A014E
:1018B00070E050E040E0811104C050E040E068E09A
:1018C00070E0CE010E94B3058091E8008E7780938E
:1018D000E80080E2FE01A3EBB2E001900D928A9550
:1018E000E1F7DF91CF91089568E081E0CDCF81E00D
:1018F0008093E00080E28093D8001092C9008FE1CD
:101900009EE40197F1F700C0000087E090EBDC0156
:101910008093E2029093E302A093E402B093E50285
:1019200088E19CE00FB6F894A895809360000FBE04
:1019300090936000FFCF5198599A85E08A95F1F70E
:10194000000089B18695817008955098589A85E075
:101950008A95F1F7000089B181700895CF93DF93E4
:10196000C2E3D0E00E94A50C811102C0209721F4AF
:10197000CE01DF91CF91089585E08A95F1F70000BF
:101980002197F0CF8AE1815059F49FB7F8942091C4
:10199000970280919802821313C080E09FBF089540
:1019A0003FB7F89420919802909197023FBF291376
:1019B000ECCFEFE9FFE03197F1F700C00000E3CF93
:1019C00030E0F901E958FD4F80812F5F3F4F2F71C3
:1019D000332720939702E2CFCF93DF93EC010E944D
:1019E000A50C882311F0209721F4CE01DF91CF912F
:1019F000089585E08A95F1F700002197F0CFEF92E6
:101A0000FF920F931F93CF93DF93E82E10929902CA
:101A1000E8985898509A0E9451078FE891E00197F2
:101A2000F1F700C000000E9454070E94570780E1B0
:101A300097E20E94EC0C892B81F48AE08093990252
:101A40000E9457070E945107E89A80E0DF91CF91EA
:101A50001F910F91FF90EF900895D0E0C0E011E04A
:101A6000F12C01E0C7010C2E02C0959587950A94D0
:101A7000E2F780FF09C010270E9451070E94AE0CB8
:101A8000892B29F482E0DACF0E945407F7CF82E352
:101A900090E00E94EC0C892B11F483E0CFCF2196CB
:101AA000C830D105F9F680E58A95F1F7112341F0A8
:101AB0000E9451070E94AE0C892B29F484E0BECF0E
:101AC0000E945407F7CF82E390E00E94EC0C892B30
:101AD00011F485E0B3CF90E59A95F1F70E94510794
:101AE000C2E3D0E00E949B0C882351F0209711F4B0
:101AF00086E0A4CF25E02A95F1F700002197F2CFE8
:101B0000CD2BB1F382E390E00E94EC0C892B11F411
:101B100087E094CF0E94AE0C892B79F488E08ECFB9
:101B200085E08A95F1F7000021970E949B0C8111B6
:101B300007C02097A9F789E081CFC2E3D0E0F5CFB5
:101B4000CD2BC9F30E9457070E945107E89ADF91F5
:101B5000CF911F910F91FF90EF900C94C20C809148
:101B60002002811110C08091D80080618093D8003C
:101B70008AE18A95F1F700C08091D90080FF0AC000
:101B800081E08093200281E090912002913009F061
:101B900080E0089582E0809320020E946305109205
:101BA000D502F1CF0E94AF0D882351F0E0919E0243
:101BB000F0919F02309721F00190F081E02D09947F
:101BC00080E0089520912A01222351F12091A8025A
:101BD00027FF26C0E62FE695E695E695EE3178F4E8
:101BE000E80FF92FF11D677021E030E001C0220FEE
:101BF0006A95EAF7209582812823228308958091AF
:101C0000A20280FF19C01F926F9386EE97E09F9308
:101C10008F930E9443050F900F900F900F9008959F
:101C2000FC01329608962191621303C0DF011197DF
:101C30001C92E817F907B9F7089520912A01222389
:101C400049F12091A80227FF25C0E62FE695E695E9
:101C5000E695EE3170F4E80FF92FF11D677021E081
:101C600030E001C0220F6A95EAF78281822B8283DD
:101C700008958091A20280FF1EC01F926F9388EC8E
:101C800097E09F938F930E9443050F900F900F90C2
:101C90000F900895FC0132962FEF30E041916417C8
:101CA00051F02F3F19F4411101C0232F3F5F36300F
:101CB000A9F72F3F09F40895820F911D27FD9A95EA
:101CC000FC0162830895CF9384EF0E94FF0CC82F1C
:101CD0008091A20283FF1BC08CE997E00E94AA04B6
:101CE000809199021F928F931F92CF931F9284EF3E
:101CF0008F9386E797E09F938F930E9443058DB75C
:101D00009EB708960FB6F8949EBF0FBE8DBFCF91B9
:101D100008958091A20283FF7EC083E597E00E9430
:101D2000AA04809172021F928F938EE497E09F9392
:101D30008F930E9443058CE497E00E94AA0480914F
:101D40007302282F082E000C330B3F938F9389E4E6
:101D500097E09F938F930E94430587E497E00E944A
:101D6000AA0480917402282F082E000C330B3F9395
:101D70008F9384E497E09F938F930E94430582E4BE
:101D800097E00E94AA0480917502282F082E000C6B
:101D9000330B3F938F938FE397E09F938F930E9432
:101DA00043058DE397E00E94AA0480917602282FD4
:101DB000082E000C330B3F938F938AE397E09F9399
:101DC0008F930E94430587E397E00E94AA048091C5
:101DD0006C021F928F9384E397E09F938F930E94EE
:101DE000430582E397E00E94AA0480916B021F9250
:101DF0008F938FE297E09F938F930E9443058CE22D
:101E000097E00E94AA048DB79EB74C960FB6F8943F
:101E10009EBF0FBE8DBF0E940B079C019091730265
:101E200080917402982B21F03093700220936F02FE
:101E30009091750280917602982B21F030936E027A
:101E400020936D0281E792E00C9443077F928F927A
:101E50009F92AF92BF92CF92DF92EF92FF920F9339
:101E60001F93CF93DF937C015B01842E752E690154
:101E70008091210201E010E08A3010F40AE010E0C5
:101E8000C1E0D0E0F894B501C701F6010995982E9C
:101E90007894811114C021960C171D07FCF48091D1
:101EA000A20280FF0CC07F928F928DE295E09F93FB
:101EB0008F930E9443050F900F900F900F90892DE4
:101EC000DF91CF911F910F91FF90EF90DF90CF9016
:101ED000BF90AF909F908F907F900895CC9F90017E
:101EE000CD9F300D300D112490E080E045E34A9500
:101EF000F1F70000019628173907C1F7C3CFEF9219
:101F0000FF920F931F93CF93DF93809111029091D3
:101F10001002892B90910F02892B8093960190914A
:101F200012029923B1F0892B8093960180912A01A6
:101F3000882309F45DC08091A80287FF59C08EE113
:101F4000E8E9F1E090E0815008F054C091110E945E
:101F5000690AE0919E02F0919F02309709F450C007
:101F600080912A01882359F08091A80287FF07C039
:101F7000809196018093970185E08093960102807D
:101F8000F381E02D86E991E009958091A20282FF1C
:101F900037C080FF04C08CEB94E00E94AA04C6E91D
:101FA000D1E08EE9E82E81E0F82E06EB14E0809176
:101FB000A20280FF0BC088811F928F931F930F9303
:101FC0000E9443050F900F900F900F902196EC16F2
:101FD000FD0669F78091A20280FF12C084EB94E0B5
:101FE000DF91CF911F910F91FF90EF900C94AA0475
:101FF00086E0A6CF2191222309F4A5CF9F5FA3CF2E
:10200000DF91CF911F910F91FF90EF90089590E095
:1020100080E00E942D0790E080E00E941707109258
:10202000100210920F020E947F0F86E0E1E7F2E0BB
:10203000DF011D928A95E9F710926C0210926802F6
:1020400010926B020C94890E60933B0270933C02D9
:1020500080933D0290933E020C9407100F931F93C0
:1020600041E050E060E070E004C0440F551F661F7F
:10207000771F8A95D2F7CB01BA016095709580954C
:10208000909500913B0210913C0220913D023091CD
:102090003E0260237123822393231F910F910C949E
:1020A000241090910E028095892380930E02282F90
:1020B000277039F4282F082E000C330B92171306C3
:1020C00021F49091A90292FF07C085958595859589
:1020D0000E942E1010920E0208950F931F9341E05C
:1020E00050E060E070E004C0440F551F661F771F8A
:1020F0008A95D2F780913B0290913C02A0913D02DB
:10210000B0913E028A019B01082B192B2A2B3B2BF5
:10211000C901B8011F910F910C9424106093130210
:102120007093140280931502909316020C9407107A
:10213000882341F0809590911102892380931102A8
:102140000C947F0F0895882339F090911102982BF9
:10215000909311020C947F0F08958823B1F19CEFA6
:10216000980F913A38F4682F86E991E00E94E20DC9
:102170000C947F0F90E2980F983088F4877021E0DC
:1021800030E0A90102C0440F551F8A95E2F7CA0149
:10219000809590911102892380931102E9CF9BE5EC
:1021A000980F933020F490E080E00C942D0798E590
:1021B000980F973120F490E080E00C9417078D3E43
:1021C00020F00E945A070C94890E0895CF93C82FCF
:1021D000882309F46FC08CEF8C0F813AC0F5809191
:1021E0002A01882311F18091A80287FF1EC0EC2FDD
:1021F000E695E695E695F0E0EA56FE4F828190E09E
:102200004C2F477021E030E002C0220F331F4A9567
:10221000E2F782239323892B91F06C2F86E991E0DA
:102220000E94E20D0E947F0F0AC0E8E9F1E08EE90A
:1022300091E02191C21789F38E179F07D1F76C2F78
:1022400086E991E00E941D0ECF910C947F0F80E2F1
:102250008C0F883068F4C77021E030E001C0220F95
:10226000CA95EAF780911102822B80931102ECCF7C
:10227000EBE5EC0FE33040F4F0E0ED5BFE4F8081E6
:1022800090E0CF910C942D07E8E5EC0FE73150F486
:10229000F0E0EE0FFF1FEA5BFE4F80819181CF914E
:1022A0000C941707CD3E30F08C2F0E941D08CF9163
:1022B0000C94890ECF9108951F93CF93DF93182F1D
:1022C000D0E0C0E0893311F4C0E5D0E0812F0E9456
:1022D000E610209731F4812FDF91CF911F910C945C
:1022E000AD108FE99FE00197F1F700C00000219742
:1022F000F0CF0F931F93CF93DF93C62FD42F022FCE
:10230000FC0182818823A1F06093E1020E940B0707
:102310009093E0028093DF02C77081E001C0880FD4
:10232000CA95EAF7DF91CF911F910F910C94A310FA
:102330008091E102681335C08091DF029091E00244
:102340000E94F006883C910560F510E21D0FCD1744
:10235000B9F080E28C0F883040F4C77081E001C092
:10236000880FCA95EAF70E949810183048F481E067
:102370009D2F977001C0880F9A95EAF70E94A310CD
:10238000802F0E945C11183098F4D77081E001C052
:10239000880FDA95EAF7DF91CF911F910F910C9496
:1023A0009810C77081E001C0880FCA95EAF7F3CF93
:1023B000DF91CF911F910F910895AF92BF92CF926D
:1023C000DF92EF92FF920F931F93CF93DF93EC0175
:1023D0008AE0A82EFE012491222309F494C0213022
:1023E00009F03EC031968491813031F42296FE018D
:1023F00084910E945C1107C0823039F42296FE015C
:1024000084910E94E6102196E5CF833031F4229624
:10241000FE0184910E94AD10F6CF843009F071C0A6
:102420002296FE01249190E080E0FE013196205337
:10243000330B2A30310548F0019728F3EFE9FFE02C
:102440003197F1F700C00000F7CFA89EA001A99E28
:10245000500D1124C901840F951F2491EF01E5CF80
:10246000E22FF0E0EC50FE4FB490822F86958695D7
:10247000869590E0FC01EC51FE4FE4902770F12C22
:10248000022E02C0F594E7940A94E2F731E0E322C9
:10249000FF24FC01EC52FE4FC490D12C022E02C04E
:1024A000D594C7940A94E2F7E1E0CE22DD24FC0142
:1024B000EC53FE4F049110E002C0159507952A9544
:1024C000E2F701701127E114F10419F081EE0E9486
:1024D000E610C114D10419F086EE0E94E6108B2D8F
:1024E0000E945C11CD2819F086EE0E94AD10EF28F5
:1024F00019F081EE0E94AD10012B09F484CF8CE21B
:1025000078CFEF0180CFDF91CF911F910F91FF9096
:10251000EF90DF90CF90BF90AF900895CF9384E07D
:1025200090E00E94522AC82F82E290E00E94522A34
:10253000982F8C2FCF9108950F931F93CF93DF93F4
:1025400000D000D0CDB7DEB74091330250913402B5
:1025500060913502709136022FB7F8948091A402F1
:102560009091A502A091A602B091A7022FBF841B53
:10257000950BA60BB70B84369105A105B10588F123
:102580000E94AF0D882379F10E94FF066E5F7F4F96
:102590008F4F9F4F69837A838B839C838091170130
:1025A00090911801865D9D4F4091160150E0453095
:1025B000510510F044E050E0BE016F5F7F4F0E9474
:1025C000A12A82E090E00E945629892BD9F40E942A
:1025D000FF06609333027093340280933502909328
:1025E000360281E010C00E94FF0600913702109170
:1025F00038022091390230913A02600F711F821F18
:10260000931FC4CF80E00F900F900F900F90DF9139
:10261000CF911F910F9108950F931F93CF93DF9345
:1026200000D000D00F92CDB7DEB78B0190E080E0F4
:102630000E945629892B09F085C04091050150E080
:102640004115510511F041E050E060910601709193
:102650000701665D7D4FCE0105960E94A12A40913B
:1026600026025091270260912802709129022FB70B
:10267000F8948091A4029091A502A091A602B09135
:10268000A7022FBF841B950BA60BB70B84369105B1
:10269000A105B10540F48BE292E00E944C059D81BA
:1026A000891709F45FC081E090E00E945629892BC8
:1026B000C1F080E0409122025091230260912402F7
:1026C00070912502F80140835183628373830F90D8
:1026D0000F900F900F900F90DF91CF911F910F915E
:1026E000089540910F0150E04530510510F044E04D
:1026F00050E06091100170911101665D7D4FCE0137
:1027000001960E94A12A8BE292E00E944C059D81D5
:102710008913CFCF0E94FF06609326027093270291
:10272000809328029093290289819A81AB81BC8190
:102730008093220290932302A0932402B093250257
:1027400081E0B8CF80E040912B0250912C02609143
:102750002D0270912E0249835A836B837C838111F1
:10276000E3CFA8CF81E0EFCF9F92AF92BF92CF92FD
:10277000DF92EF92FF920F931F93CF93DF93CDB72A
:10278000DEB72C970FB6F894DEBF0FBECDBF8E011B
:102790000F5F1F4F88E0F80111928A95E9F786E7ED
:1027A000C82E81E0D82EF12CE12CAA24A394B12CC0
:1027B000F60181916F018F3F09F449C0F894E82F29
:1027C000E295EF70F0E021A18F70A50102C0440FE7
:1027D000551F8A95E2F7CA01922F982B91A392A1D7
:1027E0008095892382A3789400C0EEE7F1E030E081
:1027F00020E0912C41914F3F09F481C0A42FA29574
:10280000AF70B0E090968C9190E04F7002C09595BB
:1028100087954A95E2F780FD72C08A2D022E01C08D
:10282000880F0A94EAF7982A2F5F3F4F2630310528
:1028300009F7F601319780818F3F11F00E948708D8
:1028400050EA5A95F1F7F801EE0DFF1D90828FEFD7
:10285000E81AF80A94E0E916F10409F0A9CF48E073
:1028600050E0B8018FE392E00E94942A7C01892B0A
:1028700041F088E0F801AFE3B2E001900D928A9553
:10288000E1F710914802E114F104D9F181E080935D
:1028900019020E940B0790931802809317028091EF
:1028A0001702909118020E94F006059790F0E12F10
:1028B000F0E0E75BFD4F80913F0280838091400212
:1028C00081838091410282838091420283831092AE
:1028D000190281E090E0EF28C1F02C960FB6F89431
:1028E000DEBF0FBECDBFDF91CF911F910F91FF9043
:1028F000EF90DF90CF90BF90AF909F90089580E0D1
:1029000092CF809119028111CACF0E94AF0DD82EAB
:10291000E0914802882309F4A1C019861A861B8613
:102920001C860E2F10E0075B1D4FC0902102FE0198
:102930003D967F01F9E0FC1508F456C02CE033E128
:102940004BE251E0BE01675F7F4FC8010E94260F36
:10295000882309F461C02CE932E148E351E0BE016B
:10296000675F7F4FC8010E94260F882309F454C077
:1029700049E04C1508F469C010922102E091470229
:10298000F0E0AF01475B5D4FDE01199610E0FA0100
:102990009191AF018D91981731F09F01215031092C
:1029A000F90180831D2DAE15BF0589F78091540272
:1029B000909155020097B1F00E94F0068F3E924030
:1029C00088F080915D0290915E02892B59F484E039
:1029D0000E942E10109255021092540287E195E049
:1029E0000E94AA04812F79CF80911A0290911B0234
:1029F0000E94F006843F914008F0A0CFA0914702CA
:102A0000B0E0A75BBD4FFE0139961D921192EE1604
:102A1000FF06D9F71D2DCACF809121028F3F31F0DB
:102A20008F5F809321028A3008F4A8CF0E940B07A1
:102A300090931B0280931A028091A20280FFDECF46
:102A400081EE94E00E94AA04D9CF8091A20280FF77
:102A500093CF8EEC94E00E94AA048ECFF0E0E75B67
:102A6000FD4FF89484E0ABE2B2E001900D928A95BC
:102A7000E1F78BE292E00E944C0580932A02789461
:102A8000F894C0902F02D0903002E0903102F09084
:102A9000320280911C0290911D02A0911E02B09101
:102AA0001F02C816D906EA06FB06D1F0C0921C0226
:102AB000D0921D02E0921E02F0921F020E94AF0D02
:102AC00081110EC00E94FF06C61AD70AE80AF90A49
:102AD000C0923702D0923802E0923902F0923A0264
:102AE000789480E0FACE69EE7EEF90E080E00E947C
:102AF0007E2A60E082E090E00E94602A60E083E04D
:102B000090E00E94602A1092130210921402109218
:102B100015021092160260E084E090E00E94602AA4
:102B200060E082E290E00E94602A60E085E090E050
:102B30000E94602A60E086E090E00E94602A6FEFC9
:102B400087E090E00E94602A40E050E0BA0188E00F
:102B500090E00E94722A60E08DE090E00E94602A7E
:102B600040E050E0BA0188E190E00E94722A60E003
:102B700087E190E00E94602A40E050E0BA018CE1D9
:102B800090E00E94722A70E060E080E290E00E9493
:102B90007E2A40E050E0BA0188E190E00E94722A6B
:102BA00040E050E0BA018FE090E00E94722A40E0DD
:102BB00050E0BA0183E190E00C94722ACF93DF9346
:102BC000D82FC091A902C2FB882780F98D17F9F090
:102BD000D0FBC2F9C093A9026091A80284E090E002
:102BE0000E94602A6C2F82E290E00E94602A80910D
:102BF000A20280FF0CC01F92DF938FE994E09F93A5
:102C00008F930E9443050F900F900F900F90DF91CC
:102C1000CF9108951092110280912A01E8E9F1E024
:102C2000882359F08091A80287FF07C08EE1DF0159
:102C30001D928A95E9F70C94071086E0F8CF1F9350
:102C4000CF93DF93CDB7DEB7AA970FB6F894DEBF68
:102C50000FBECDBF87ED92E02091F100DC012D93F6
:102C6000CD01B2E08F3D9B07B9F78091D802833048
:102C700009F46FC0B8F4813009F446C0823009F419
:102C8000B0C08091E80083FF38C18091D702909155
:102C9000D8029A3008F031C1E92FF0E0E654F54D42
:102CA0000C94382A8A3009F48BC08B3009F46EC03A
:102CB000893039F78091D702813219F78091DB0290
:102CC0009091DC020297E8F68091E800877F80937C
:102CD000E8008091E80082FF37C09091F300809176
:102CE000F200029729F48091F1008B7F813021F46A
:102CF0008091F1008093B2028091E8008B778093FD
:102D0000E8000E94DD05BDCF8091D702813A09F02D
:102D1000B8CF8091E800877F8093E8008091DB0244
:102D20009091DC02892B61F460E283EB92E070E029
:102D30000E948F068091E8008B778093E800A1CFF6
:102D400060E090E080E0F3CF8091D5028111C1CFA7
:102D500098CF8091D702813A09F093CF8091DB021E
:102D60009091DC02892B09F08CCF8091E800877F5D
:102D70008093E8008091E80080FFFCCF80912A01D9
:102D80008093F1008091E8008E77B9CF8091D702CF
:102D9000813209F076CF8091DB029091DC02892BA1
:102DA00009F06FCF8091E800877F8093E8000E9450
:102DB000DD058091D90280932A010E940A1661CF15
:102DC0008091D702813209F05CCF8091E800877F43
:102DD0008093E8000E94DD058091DA028093B102C1
:102DE00050CF8091D702813A09F04BCF8091E80013
:102DF000877F8093E8008091E80080FFFCCF80917E
:102E0000B102BECF803899F0823809F076C0809147
:102E1000DB028F70873008F070C08093E9008091EA
:102E2000EB0085FB882780F91092E90006C08091AD
:102E3000D3029091D402911182609091E800977F23
:102E40009093E8008093F1001092F1008091E800E7
:102E50008E77B0C1882309F49DC1823009F04DC03E
:102E60008091D9028111A1C18091DB028F702FEF77
:102E7000280F263008F041C08093E9002091EB0034
:102E800020FF93C1933031F48091EB0080628093F6
:102E9000EB008BC19091EB0090619093EB0021E0EF
:102EA00030E001C0220F8A95EAF72093EA001092E1
:102EB000EA008091EB008860EACF81111EC010917A
:102EC000D9021F778091E3008078812B8093E30003
:102ED0008091E800877F8093E8000E94DD05809163
:102EE000E80080FFFCCF8091E30080688093E300DE
:102EF00082E0111183E08093D5028091E80083FF86
:102F00000AC08091E800877F8093E8008091EB0001
:102F100080628093EB00AA960FB6F894DEBF0FBED6
:102F2000CDBFDF91CF911F9108958058823028F74F
:102F30002091D9023091DA022C3DE3E03E07A1F561
:102F400083E08A838AE289834FB7F894DE0113967F
:102F500020E03EE051E2E32FF0E050935700E4918F
:102F600020FF03C0E295EF703F5FEF708E2F90E07F
:102F7000EA30C0F0C7968D939D932F5F243159F7A7
:102F80004FBF8091E800877F8093E8006AE270E09D
:102F9000CE0101960E948F068091E8008B77809386
:102FA000E800ABCFC096E7CF8091DB029091DC02C6
:102FB000432F55274330510509F44AC078F5413075
:102FC000510509F47AC08BE590E0E8E1F8E0423081
:102FD000510509F092CF2091E800277F2093E80067
:102FE0002091DD023091DE028217930708F49C01E4
:102FF00040E02115310509F065C0411163C08091A1
:10300000E80082FDC9CF8091D502882329F285305E
:1030100019F28091E80083FFF2CFBECF4132510513
:1030200009F43CC04232510509F067CF8330910565
:1030300008F063CFFC01EE0FFF1FE957FE4F019030
:10304000F081E02D8C579E4FDC018C9190E01AC0EE
:10305000332721303105D1F02115310561F02230BF
:10306000310509F04ACFE5E8F8E0E4918E2F90E0D1
:10307000E5E8F8E007C0E5EAF8E0E4918E2F90E09B
:10308000E5EAF8E0009709F438CFA5CFE3E9F8E0E6
:10309000E4918E2F90E0E3E9F8E0F4CF83309105DE
:1030A00008F02BCF880F991FFC01E357FE4F0190CA
:1030B000F081E02D89E090E08ECF82E190E0E3E7BF
:1030C000F8E089CF8091D502882309F465CF853057
:1030D00009F462CF8091E80083FD5ECF8091E80023
:1030E00082FD8DCF8091E80080FF83CF9091F30027
:1030F0008091F2002115310519F08830910550F0CA
:1031000041E0089709F040E08091E8008E778093D5
:10311000E8006FCF44914093F1003196215031097E
:103120000196E8CF803809F0E8CE8091E800877FEB
:103130008093E8008091D6028093F10087CE8111C0
:10314000DCCE1091D902123008F0D7CE8091E80081
:10315000877F8093E8001093D6020E94DD0511233B
:1031600011F084E005C08091E30087FDFACF81E093
:103170008093D50242E061EC81E00E94FC0542E2CE
:1031800061EC82E00E94FC0542E261EC83E00E9477
:10319000FC05B3CE8091D902813009F0AECE81E03A
:1031A000933009F080E08093D4021092E90080917E
:1031B000E800877F8093E8000E94DD059ECE4F9255
:1031C0005F926F927F928F929F92AF92BF92CF92B7
:1031D000DF92EF92FF920F931F93CF93DF9300D074
:1031E00000D00F92CDB7DEB77C01FC0183819481C2
:1031F000892B39F01081D180812F8D218F3F09F0EB
:1032000007C50F900F900F900F900F90DF91CF9107
:103210001F910F91FF90EF90DF90CF90BF90AF90F4
:103220009F908F907F906F905F904F9008950E9435
:10323000790A082F682F89819A810E94140BE12F47
:10324000F0E026E0D29EE00DF11D112430E3039F53
:10325000E00DF11D1124EE0FFF1FE154FD4F05910C
:103260001491F7018281882381F00536FDE51F075F
:1032700009F483C018F503363DE5130709F47AC055
:1032800004368DE5180709F47BC0043F2CE51207CE
:1032900009F4B5C008F07DC0093D8CE5180709F4B4
:1032A000AAC00A3D9CE5190709F4B5C0083DECE544
:1032B0001E0799F426E241EE61EE78C007369DE5DF
:1032C000190709F463C008F45EC084E792E0083689
:1032D000FDE51F07D1F60E94DD11F70182818823E9
:1032E00009F4A7C41092E1020430FDE51F0708F0BD
:1032F00095C00B3F2CE5120730F4C80182509C4565
:10330000449708F090C00E948E129093A902809377
:10331000A80200318CE5180709F458C108F0D4C0A0
:103320000830ECE51E0709F43FC108F0A6C00430E0
:103330002CE5120709F42AC108F08CC002308CE594
:10334000180709F41DC18091A802826003301C4552
:1033500009F419C16091A8021091A90284E090E0DB
:103360000E94602A612F82E290E00E94602A0E94FF
:103370000A161FC086E992E0AECF80E992E0ABCF9B
:103380008BE892E0A8CF84E892E0A5CF8DE792E0A9
:10339000A2CF063FFCE51F07D1F1A8F127E245EED9
:1033A00066EE073F3CE5130709F097CFC7010E947F
:1033B000791180910E02877009F423CFF701828181
:1033C000882309F41ECF82E00F900F900F900F908A
:1033D0000F90DF91CF911F910F91FF90EF90DF90B1
:1033E000CF90BF90AF909F908F907F906F905F90A5
:1033F0004F900C94511027E245EE65EED7CF26E2B0
:1034000041EE60EED3CF27E245EE64EECFCF26E269
:1034100041EE62EECBCF28E241E0EFCF02363DE550
:10342000130709F470CF0631ECE51E0709F00FC44D
:10343000809111028A7A91E009F490E09093B701AB
:1034400069E2811165E386E991E00E941D0E0E9408
:103450007F0FAFCF8091A80280610630ECE51E0798
:1034600009F491C08091A802886007301C4508F4D7
:103470008AC08091A802806286C08091A8028D7F58
:103480000C302CE5120709F47EC058F40A308CE5A4
:10349000180709F493C008F48BC08091A8028E7FAE
:1034A00072C08091A802877F0E30ECE51E0709F4F8
:1034B0006AC08091A8028B7F0F301C4508F463C05E
:1034C0008091A8028F7E5FC00D3F2CE5120709F4A2
:1034D00079C068F504318CE5180709F48BC080F4D5
:1034E0000231ECE51E0709F475C08091A8028F7BBC
:1034F00003311C4508F447C08091A802837F43C074
:103500000B3F2CE5120709F445C008F049C005310E
:103510001C4509F01FCF8091A80282FB992790F9E2
:1035200021E0922790FB82F990FB83F92CC00130B7
:103530009DE5190709F454C088F48091A9028360BD
:103540000F3FFCE51F0749F18091A9028D7F01150E
:103550001D4518F18091A9028C7F1FC003303DE505
:10356000130709F456C008F44EC002361D4509F091
:10357000F1CE9091A802892F8F7E94FF806103C0C5
:103580008091A80281608093A802E4CE8091A80275
:103590008460F9CF8091A90281608093A902DACE7C
:1035A0008091A9028260F9CF8091A8028064EBCF5C
:1035B0000E940A168091A8028068E5CF8091A80237
:1035C0008C60E1CF8091A9028E7FE7CF8091A80225
:1035D0008F7DD9CF0E940A168091A8028F77D3CF12
:1035E0008091A902982F909591708E7F892B90FBE6
:1035F00081F9D3CF0E940A169091A802892F97FBD8
:1036000087F98058C0CF61E08EE090E00E94602A88
:10361000A1CE60E0F9CF0E940A16FFEF24E33CE060
:10362000F15020403040E1F700C000000E94770CCC
:103630008CE992E027C30E947315BBCE8091A9024A
:1036400082FB882780F991E089270E94DE15F70127
:10365000828110810181882309F44FC0812F902F2E
:103660000E94790AD82E682F812F902F0E94140B68
:10367000E12FF0E026E0029FE00DF11D112430E380
:10368000D39EE00DF11D1124EE0FFF1FE154FD4FFD
:10369000859194910E94E1088C01882EF701D280D7
:1036A000A580A2945FE0A52280910E028770A1F010
:1036B000CD2CDD2091F0812F807F803421F080E2BD
:1036C000800F883048F082E00E94511080910E02F5
:1036D0008770CC24C3948111C12CB12EB2943FE0E9
:1036E000B322FBE0FB1508F443C0EB2DF0E0EC53F4
:1036F000F54D0C94382A80E0A8CF812F902F0E949E
:10370000EB0AD82EB5CF212F2F70A22E107F19F0E3
:10371000A29420EFA222DD20C9F0AA2069F080E265
:10372000800F883010F081100BC080911102A82A00
:10373000A09211020E947F0F802F0E94E61018C0F5
:1037400080911002A82AA0921002F4CF802F0E942C
:10375000AD10AA2069F0A094005E083010F081102E
:1037600045C080911102A822A09211020E947F0FF1
:10377000EB2DE850FF0B349710F40E94D20DCC20B3
:10378000A9F080910E0280FD11C0F701128285958B
:10379000859585950E946D10C7010E94DF18809164
:1037A0000E028595859585950E942E1085E0F7017E
:1037B000DE01119601900D928A95E1F789819A8137
:1037C0000E94EB0A9A81E981F0E026E0929FE00DE9
:1037D000F11D112430E3839FE00DF11D1124EE0F44
:1037E000FF1FE154FD4F859194910BCD8091100204
:1037F000A822A0921002BACF312F3F70932E107FD3
:10380000103219F0929490EF9922882071F081E0A3
:10381000881681F1DD20D9F1AA2091F1F701858187
:1038200080FF8ACF8F7085832BC0DD20B1F090910F
:103830001202892D892BA11003C00E94A31098CFDA
:10384000E1E0AE12FACF2091A90222FD91CF9817A4
:1038500009F48ECF809312028BCFA11006C00E9474
:10386000690A892D0E94981083CFF1E0AF1609F400
:103870007FCFF5CFDD2031F025E02A1508F478CF91
:10388000892DDBCF34E03A1508F472CFEACFAA20B5
:1038900041F3F9E38F12B5C12FEF37EE83E02150EA
:1038A00030408040E1F700C00000ABC1812F869519
:1038B0008695837061F0813009F05ACFC80193700A
:1038C000D11002C090E080E00E94170751CFC801DC
:1038D0009370D11002C090E080E00E942D0748CF85
:1038E000802FDD20E9F00E941D08015F110B0330DD
:1038F0001105F0F440915D0250915E0221E030E04C
:1039000002C0220F331F0A95E2F7C9019927DD2073
:1039100051F0842B952B90935E0280935D0228CF0B
:103920000E945A07E2CF8095909584239523F3CF88
:103930000E94890E1DCF812F837009F066C0D110BF
:1039400017CF802F829586958770880F880F602FFC
:103950006F70462E512C712C612C082E04C0440C23
:10396000551C661C771C0A94D2F740E050E0BA015F
:1039700004FF0FC04FE050E060E070E004C0440F6F
:10398000551F661F771F8A95D2F740955095609511
:103990007095812F869586958370823019F1D8F4C1
:1039A0000091130210911402209115023091160219
:1039B000813069F04429552966297729CB01BA015C
:1039C00060237123822393230E948E10D1CE402A3C
:1039D000512A622A732ACB01BA01642975298629E2
:1039E0009729F2CF44295529662977290091130296
:1039F000109114022091150230911602CB01BA01E8
:103A00006027712782279327DFCF8695DD2011F06D
:103A1000812F8170882309F4ABCE802F8295869503
:103A20008770880F880F602F6F70462E512C712C75
:103A3000612C082E04C0440C551C661C771C0A948B
:103A4000D2F740E050E0BA0104FF0FC04FE050E071
:103A500060E070E004C0440F551F661F771F8A9511
:103A6000D2F74095509560957095812F86958695F3
:103A70008370823019F1D8F400913B0210913C021E
:103A800020913D0230913E02813069F04429552950
:103A900066297729CB01BA016023712382239323FE
:103AA0000E94241065CE402A512A622A732ACB0133
:103AB000BA016429752986299729F2CF4429552905
:103AC0006629772900913B0210913C0220913D022A
:103AD00030913E02CB01BA016027712782279327DC
:103AE000DFCF1F70DD2029F0812F0E946D10802F05
:103AF000A4CE802F0E949810812F0E942E1038CEC5
:103B0000802F92EF891609F454C0981578F0E0EFF1
:103B10008E1639F1F1EF8F1609F443C0DD2009F458
:103B20006BC0A11009CE812F8F7140C023EF821688
:103B300009F444C034EF8312F1CFDD2009F451C001
:103B40001F71812F0E946D108091A90282FD07C014
:103B5000E8E01E9FC0011124836080930E02812F34
:103B600025C0DD20C9F084E08A1508F401CE1F715C
:103B700061E070E080E090E004C0660F771F881F6E
:103B8000991F1A95D2F700913B0210913C022091A7
:103B90003D0230913E02A0CF95E09A1508F4E8CDA1
:103BA000E6CF812F8F71DD2009F4A7CF0E946D1021
:103BB000DFCD812F8F71DD20C9F39FCF60E070E0F2
:103BC000CB01DD2009F46CCF1F7161E070E080E073
:103BD00090E004C0660F771F881F991F1A95D2F7CF
:103BE0005FCF81E00E945110F1E0FA1508F0C0CDDE
:103BF00082E00E945110BCCDAA2039F0893309F42B
:103C00004BCE802F0E94AD10B3CD812F8F7175CF19
:103C100085E0DE01119601900D928A95E1F7F7019A
:103C2000228189819A81211102CB0E94EB0A082FFF
:103C300006CB06311C4509F00ACD8091B70169E237
:103C4000811165E386E991E00E94E20D00CC0F3D11
:103C50002CE5120709F4EFCCC0F401158CE5180728
:103C600009F4D9CC01301C4509F0F1CC9091A202A5
:103C7000892F8E7F90FF81608093A20280FFD8CC35
:103C80008EEA92E00E94AA0494CB0C35EDE51E0763
:103C900009F431CD0D35100709F4D0CC0B351D4595
:103CA00009F0D5CC81E0D1CC1F93CF93DF938091E5
:103CB000DB01807FA9F48091D801882389F080916D
:103CC0000D02D091DC016091D6017091D701A091D5
:103CD000D901B091DA01C62FC72316E0D81304C06A
:103CE000DF91CF911F91089590E0109711F0CF3F91
:103CF00019F401968770F2CF189F9001199F300D2B
:103D00001124F901E352FE4F41814713F2CF408164
:103D10004613EFCF42814111ECCF438154814A1BBE
:103D20005B0B483C510528F78091DB018F70806167
:103D30008093DB01F901EE51FE4F80818F7080612D
:103D4000808386ED91E00E94DF18DF91CF911F9173
:103D50000C946F0AAF92BF92CF92DF92EF92FF92D4
:103D60000F931F93CF93DF93CDB7DEB761970FB655
:103D7000F894DEBF0FBECDBF8C0185E0F801DE01F7
:103D80001D9601900D928A95E1F7F801E28086ED8B
:103D9000A82E81E0B82E6091D9017091DA016115E9
:103DA000710509F432C19091D6014091D701892F54
:103DB00084238F3F09F429C120813181C380D480BD
:103DC000F090D801F601E61BF70BFF2009F4E8C0DC
:103DD0008091DB01582F507FE83CF10508F0ABC023
:103DE000511177C0FE2C431321C092131FC0E11064
:103DF0001DC08F7080618093DB01C5010E94DF18B8
:103E00008091DB01F80185838F2D61960FB6F894C0
:103E1000DEBF0FBECDBFDF91CF911F910F91FF90FD
:103E2000EF90DF90CF90BF90AF900895CD2829F00C
:103E3000822F83238F3F09F003C180E0F82FF170B8
:103E4000DF2E80FF3CC080910D024091DC0156E0E6
:103E5000841315C02D873E878D859E850E94D00ACC
:103E6000292F22952F702230F0F0243018F59F7002
:103E7000F1F0F8019581907FD1F4D12C1EC090E033
:103E8000589FF001599FF00D1124E352FE4F6181BC
:103E9000361306C06081261303C06281E6120FC08C
:103EA00001968770D5CF9F7011F0882331F3805E23
:103EB000883018F3C8010E94DF18FD2CA5CFEE2032
:103EC00009F4A2CF8091DB0181608093DB01F12CAA
:103ED0009BCF431306C0921304C0F801EE2009F4EF
:103EE00079C0C8010E94420B882309F1EE20F9F045
:103EF0008091DB01803270F02091D6013091D701A2
:103F000038872F831986DB86CA868C87CE01079671
:103F10000E94DF1886E0F801A6EDB1E001900D9255
:103F20008A95E1F70E94541EFF24F3946DCFC801D7
:103F30000E94DF18F9CF51110AC086ED91E00E946E
:103F4000DF1886E0F50111928A95E9F7C0CF431397
:103F50000FC092130DC0E1100BC0F8018583C8019A
:103F60000E94DF1886E0F50111928A95E9F74CCF9F
:103F7000C8010E94420B8823D1F2EE20C1F2809149
:103F8000DB01803238F22091D6013091D7013A839B
:103F900029831B82DD82CC828E83CE010196B8CF2D
:103FA000E83CF105F8F6FE2CEE2009F243131FC0A1
:103FB00092131DC08091DB0180FD10C0982F907F6F
:103FC00069F0F8018583903F31F0982F907F905FE2
:103FD0008F70892B8583C8010E94DF1886E0F80165
:103FE000A6EDB1E001900D928A95E1F70DCFC801E1
:103FF0000E94420B81118ECF8091DB018160809302
:10400000DB01C8010E94DF18FFCEEE2009F48FCF3C
:10401000C8010E94420BF82E882309F488CF86E05D
:10402000F801A6EDB1E001900D928A95E1F780913B
:10403000D6019091D7010E94D00A0E94541EE4CE6E
:1040400081E08E25FBCE1F93CF93DF93CDB7DEB7F4
:1040500067970FB6F894DEBF0FBECDBF4B8B5C8B5E
:104060006D8B7E8B8F8B6111109210021A8A198AC8
:1040700085E0FE017396DE011D9601900D928A95F2
:10408000E1F786E0FE013D96DE01179601900D9264
:104090008A95E1F7CE0107960E94AA1E882389F02F
:1040A00016E080910D029091DC01891349C067965A
:1040B0000FB6F894DEBF0FBECDBFDF91CF911F9139
:1040C000089586E0FE013796DE01119601900D926B
:1040D0008A95E1F78A859B85892B11F38F819885D5
:1040E00089238F3FE9F22091DC0130E0C90101967C
:1040F0008770992740910D024817190671F40E94A4
:104100000A161092DC0110920D0286E0E6EDF1E055
:10411000DF011D928A95E9F7C3CF96E0929FD00107
:10412000939FB00D1124A352BE4FFE013196019012
:104130000D929A95E1F78093DC010E946F0AB0CF4F
:10414000819FC001112483529E4F0E94AA1E882382
:1041500009F4ADCF80910D0290E001968770992708
:1041600080930D029ECF1F920F920FB60F921124D3
:104170002F933F934F935F936F937F938F939F936F
:10418000AF93BF93CF93DF93EF93FF93D091E90069
:10419000DF708091EC00C82FC17080FDC0E81092E4
:1041A000E9008091F000877F8093F00078940E946E
:1041B0001F161092E9008091F00088608093F00053
:1041C000CD2BCF70C093E900FF91EF91DF91CF919C
:1041D000BF91AF919F918F917F916F915F914F911F
:1041E0003F912F910F900FBE0F901F9018951F9227
:1041F0000F920FB60F9211242F933F934F935F931B
:104200006F937F938F939F93AF93BF93EF93FF939E
:104210008091E10082FF15C08091E20082FF11C011
:104220008091E1008B7F8093E1002091AF022F5FAE
:10423000822F62E30E940A2A992309F4BEC02093C8
:10424000AF028091DA0080FF28C08091D80080FF03
:1042500024C08091DA008E7F8093DA008091D900AB
:1042600080FFE1C080E189BD82E189BD09B400FE23
:10427000FDCF81E08093D50284E098E00E94AA04FB
:104280008091B002811109C00E9463050E942E0630
:104290008091E20084608093E2008091E10080FFE1
:1042A0001BC08091E20080FF17C08091E2008E7FEA
:1042B0008093E2008091E20080618093E20080912F
:1042C000D80080628093D80019BC85E08093D50225
:1042D0008CE098E00E94AA048091E10084FF2DC048
:1042E0008091E20084FF29C080E189BD82E189BD1F
:1042F00089B5982F917080FFFBCF8091D8008F7D7A
:104300008093D8008091E1008F7E8093E1008091BE
:10431000E2008F7E8093E2008091E20081608093D2
:10432000E2008091D602882309F487C084E080935C
:10433000D50280E198E00E94AA048091E10083FF09
:104340002BC08091E20083FF27C08091E100877F2E
:104350008093E10082E08093D5021092D602809192
:10436000E1008E7F8093E1008091E2008E7F809358
:10437000E2008091E20080618093E20042E060E030
:1043800080E00E94FC058091F00088608093F0003E
:1043900084E198E00E94AA04FF91EF91BF91AF9150
:1043A0009F918F917F916F915F914F913F912F914D
:1043B0000F900FBE0F901F9018951092AF02809132
:1043C000AE02882309F43DCF8091D5028430C1F438
:1043D0009091E9009F702091EC00822F817020FD68
:1043E00080E8892B93E09093E9009091EB0090FF97
:1043F00004C09091EE0097FD08C08F708093E90093
:104400001092AE021ECF1092F1009091E80095FD3F
:10441000FACF9091E80090FFF0CF9091E8009E775E
:104420009093E800EACF19BC1092D50288E098E09A
:104430000E94AA041092B00230CF8091E30087FD61
:1044400093E09093D50275CF78941F921FB61F9278
:1044500011248F939F93AF93BF938091A402909167
:10446000A502A091A602B091A7020196A11DB11DBF
:104470008093A4029093A502A093A602B093A702F2
:10448000BF91AF919F918F911F901FBE1F90189564
:104490001F921FB61F9211248F939F93AF93BF93C8
:1044A0008091A302811113C08091A4029091A50272
:1044B000A091A602B091A7024196A11DB11D8093C3
:1044C000A4029093A502A093A602B093A702BF9165
:1044D000AF919F918F911F901FBE1F9018951F92B3
:1044E0000F920FB60F9211242F933F934F935F9328
:1044F0006F937F938F939F93AF93BF93CF93EF93DC
:10450000FF930E94A50C81113CC080919B028F5F9C
:1045100080939B028A3050F4823008F044C081308E
:1045200061F180919B028093990221C08A3009F445
:104530004EC08B30B1F70E949B0C882391F34091C1
:104540009A02CFB7F8948091980290E09C012F5F77
:104550003F4F2F71332750919702521709F443C0F0
:1045600089589D4FFC01408320939802CFBF109241
:104570009B0210929A0281E027C00E949B0C81113D
:10458000D0CFFF91EF91CF91BF91AF919F918F913C
:104590007F916F915F914F913F912F910F900FBE3F
:1045A0000F901F90189580919A02869580939A0299
:1045B0000E949B0C882329F380919A028068809343
:1045C0009A02809129018F5F80932901DACF0E949E
:1045D0009B0C90912901882319F090FFA2CFD1CF95
:1045E00090FD9FCFCECF8CEB97E00E94AA04BECF68
:1045F000CDB7DEB762970FB6F894DEBF0FBECDBF62
:1046000084B7877F84BF0FB6F894A8958091600027
:10461000886180936000109260000FBE80E890E097
:104620000FB6F89480936100909361000FBE85B738
:10463000806885BF85B7806885BF81E89BE09093DF
:104640009501809394010E9463050E942E0680913B
:10465000E20084608093E20078948091D502882300
:10466000A1F01091E9001F709091EC00892F8170EA
:1046700090FD80E8182B1092E9008091E80083FDFE
:104680000E941F161F701093E90082E084BD93E022
:1046900095BD9AEF97BD80936E00109237021092ED
:1046A00038021092390210923A028EE090E00E9495
:1046B000522A91E0811101C090E090931E010E9466
:1046C000AF0D81110E94492880911E0180911E0129
:1046D00094E0811190E09093480284E0891B8093DC
:1046E000470284E90E94870886E60E94870887E9D6
:1046F0000E94870886EC0E9487080EE711E054E8C4
:10470000E52E51E0F52EF80181918F018F3F11F0D8
:104710000E948708E016F106B1F7EFE3F2E087E4C4
:1047200092E0A9E4B2E011921D928E179F07D9F78B
:1047300090E080E00E945A2A893E9E4F11F00E942C
:10474000731582E090E00E94522A8093A2020E9498
:104750008E129093A9028093A8020E94B4138FE353
:104760009CE90197F1F700C000000E94B4138EE0AD
:1047700090E00E94522AE4E08111E0E0F0E0E75B83
:10478000FD4F808181FF08C06FEF7FEF90E080E0F8
:104790000E947E2A0E94770C83E090E00E94522AB9
:1047A000682F70E090E080E00E948E100E94AF0DB4
:1047B000811102C00E944C280E9457070E94510795
:1047C00080916900826080936900E89A9FEFE3ED31
:1047D000F0E39150E040F040E1F700C000008FEFBF
:1047E0000E94FF0C182F8091A20283FF18C086E55B
:1047F00096E00E94AA04809199021F928F931F92C3
:104800001F931F928FEF8F9380E396E09F938F9378
:104810000E9443050FB6F894DEBF0FBECDBF0E94C5
:10482000C20C182F8091A20283FF16C087E196E088
:104830000E94AA04809199021F928F931F921F9346
:104840008EEF95E09F938F930E9443050F900F90FA
:104850000F900F900F900F900E94C20C182F809114
:10486000A20283FF16C083EE95E00E94AA04809105
:1048700099021F928F931F921F938AEC95E09F934A
:104880008F930E9443050F900F900F900F900F9001
:104890000F900E94630E85EF0E94FF0C182F8091ED
:1048A000A20283FF18C089E695E00E94AA048091C5
:1048B00099021F928F931F921F931F9285EF8F93E0
:1048C00083E495E09F938F930E9443050FB6F8947D
:1048D000DEBF0FBECDBF87EE0E94FF0C182F809168
:1048E000A20283FF18C080EB95E00E94AA04809189
:1048F00099021F928F931F921F931F9287EE8F939F
:104900008AE895E09F938F930E9443050FB6F89431
:10491000DEBF0FBECDBF0E94630E8FE191E090938A
:104920009F0280939E0284E796E00E94AA0489E495
:1049300092E0E8E0E80FEA8B4FE8442E46E0542E80
:104940008091D502853071F488E297E00E94AA0434
:1049500000E112E18091D5028530B1F10E940A1682
:104960000E94D20D0E94B41381110E94FF0690E6AE
:10497000692E92E0792E29E4C22E22E0D22E10E098
:1049800000E037E8A32E36E0B32E098BF601319014
:104990006F01F30121903F0123104EC00F5F1F4FA5
:1049A0000830110591F78FEF8C878D871E860E9446
:1049B0000B078160782F988B8F874C855D856E857E
:1049C00088890E94232062C08091D502843021F121
:1049D0001092A30288E190E0E0E40FB6F894A89565
:1049E000809360000FBEE093600083B7817F846096
:1049F00083BF83B7816083BF7894889583B78E7FA8
:104A000083BF0FB6F894A895809160008861809369
:104A10006000109260000FBE8091D402882309F4D8
:104A200099CF0E94B413E9E4F2E081918111B1C2FF
:104A30002A892E13FACF8ECF8091A20281FD23C145
:104A40002324E12CFF24F394822D8F2109F44BC100
:104A50000E94AF0D8823A1F0EF82E989E8873F200B
:104A600081E009F480E089870E940B078160782F3C
:104A70009B878A874F81588569858B850E94232073
:104A8000F801E05AFD4F8081F826F08286E0E1E7E8
:104A9000F2E0DE01119601900D928A95E1F7F09017
:104AA0007302E090740210917502009176021092E8
:104AB00073021092740210927502109276028F2D7A
:104AC0008E2909F448C080916F02909170020E9473
:104AD000F0069C0190916C02992309F475C2213172
:104AE0003105C8F19F3F19F09F5F90936C02FF2042
:104AF00059F00E94F9079FEF1F140CF491E0899F71
:104B0000802D112480937302EE2059F00E94F90742
:104B10009FEF1E140CF491E0899F802D1124809347
:104B20007402309173023323B1F020917402222376
:104B300091F045EB3403C0011124992309F4D9C045
:104B40009093730245EB240390011124332309F45D
:104B5000D4C030937402812F802B09F448C0809117
:104B60006D0290916E020E94F0069C019091680285
:104B7000992309F424C225363105C8F19F3F19F065
:104B80009F5F90936802112359F00E94D7079FEF0F
:104B900011160CF491E0899F802D112480937502E9
:104BA000002359F00E94D7079FEF10160CF491E0F4
:104BB000899F802D112480937602309175023323D2
:104BC000B1F020917602222391F045EB3403C0012D
:104BD0001124992309F495C09093750245EB2403A1
:104BE00090011124332309F490C030937602809110
:104BF000730290917402892B90917502892B909188
:104C00007602892B11F00E94890E86E0FE01319612
:104C1000A1E7B2E001900D928A95E1F78BEE0E9438
:104C2000FF0C8A3F09F075C00E94C20C90915D0292
:104C3000892B809358020E94C20C880F880F880F1E
:104C4000809359020E94C20C880F880F880F8093AE
:104C50005A02909158022091560292279770209103
:104C6000590230915B02232B922B982B09F088C0BC
:104C70001092590210925A0210925B0210925C023A
:104C8000109258024EC084E996E00E94AA0489E47A
:104C9000882E82E0982EF12CE12CFF92EF925F9209
:104CA0004F920E9443058CE896E00E94AA04F4010A
:104CB00081914F010E94690B1F928F93BF92AF9217
:104CC0000E94430585E896E00E94AA04FFEFEF1AD0
:104CD000FF0A0FB6F894DEBF0FBECDBF98E0E9160D
:104CE000F104D9F6ADCEE394FF0CF6E0EF12ACCEB2
:104CF00055CE81E08093730225CF81E080937402CA
:104D00002ACF81E08093750269CF81E0809376029B
:104D10006ECF8091A20283FF04C089EE96E00E94CC
:104D2000AA040E94D20D90915F02891709F408CE5F
:104D30000E94D20D182F80935F028091A20282FF01
:104D4000FFCD80FFFDCD85E197E00E94AA04809110
:104D5000A20280FFF5CD1F921F9380E197E09F9301
:104D60008F930E9443058091A2020F900F900F90A5
:104D70000F9080FFE5CD8EE097E00E94AA04E0CD81
:104D80008091A20283FF4FC087EC96E00E94AA04A4
:104D9000809158021F928F9382EC96E09F938F939D
:104DA0000E94430580EC96E00E94AA04809159027B
:104DB0001F928F938BEB96E09F938F930E944305F6
:104DC00089EB96E00E94AA0480915A021F928F9369
:104DD00084EB96E09F938F930E94430582EB96E0CD
:104DE0000E94AA0480915B021F928F938DEA96E045
:104DF0009F938F930E9443058BEA96E00E94AA043A
:104E000080915C021F928F9386EA96E09F938F9326
:104E10000E94430583EA96E00E94AA040FB6F89424
:104E2000DEBF0FBECDBF2091580220935602822FC5
:104E3000807424FF64C0811105C0809159028038BC
:104E400009F087FF81E825FF62C027FD05C090912A
:104E50005A02903809F097FF91E8322F377030935B
:104E60005802919590935902819580935A028091AE
:104E7000530222FF54C0811109C00E940B07909376
:104E800052028093510281E0809353022091590293
:104E900080915A02922F982B91F092E090935302B6
:104EA0006BEF0E94162A80935B02822F65E00E94BE
:104EB000162A80935C021092590210925A02809135
:104EC00058028B7F809358028091590290915A0228
:104ED000892B90915B02892B69F08091540290910B
:104EE0005502892B09F440C00E940B07909355028C
:104EF0008093540287E592E00E944307B9CE811166
:104F000004C08091590287FF9ECF8FE79CCF27FD79
:104F100004C090915A0297FFA0CF9FE79ECF8130A7
:104F200001F580915102909152020E94F0068C325C
:104F30009140B8F48091580284608093580287E5CC
:104F400092E00E944307FFEF21EE44E0F150204041
:104F50004040E1F700C00000809158028B7F8093B1
:104F6000580210925302ABCF80915D0290915E0285
:104F7000892B09F0BFCF84E00E946D100E940B07BF
:104F8000909355028093540284ED96E00E94AA0407
:104F9000B1CF09BD19BD09B400FEFDCF8091D80085
:104FA0008F7D8093D8008091E00082608093E00044
:104FB0008091E00081FDFCCF0E940A16CBCC2D32FF
:104FC000314008F0DDCD13CE232B09F08DCDC3CDBC
:104FD0008EE14A9B02C08150E1F74A9BFECF0895C3
:104FE0005A9880E28A95F1F75A9A0895FC013BE0BD
:104FF0003A95F1F798E020E080E031E040E14A9511
:10500000F1F7880F4A9B02C08160232742E04A954E
:10501000F1F7000040E14A95F1F7915079F790E1FE
:105020009A95F1F799B132E03A95F1F7000040E135
:105030004A95F1F792FB992790F992272081920FD8
:1050400090830895EF92FF920F931F93CF93DF9376
:105050000F92CDB7DEB719828C017C01E60EF11CF0
:105060000E151F0561F481E09981911180E00F9088
:10507000DF91CF911F910F91FF90EF9008950E94C3
:10508000E827CE0101960E94F627F80181938F014F
:10509000E7CF529A5A9A089552985A9AEA9AE9E6AC
:1050A000F0E080818F7C808308956150770B91E0E0
:1050B00001C0990F6A95EAF720E031E0911108C02C
:1050C000222391F05A9A80E28A95F1F75A9808952E
:1050D000492F482339F05A9A232740E24A95F1F79D
:1050E0009695ECCF5A98F9CF5A98EDCFFF920F933F
:1050F0001F93CF93DF93EC018C01060F111DC01796
:10510000D10731F4DF91CF911F910F91FF90089556
:10511000F9900E94F02768E08F2D0E945528EFCF6C
:105120001F920F920FB60F921124EF92FF920F93DE
:105130001F932F933F934F935F936F937F938F931F
:105140009F93AF93BF93EF93FF93CF93DF930F9210
:10515000CDB7DEB719820E94E827CE0101960E94E2
:10516000F627A82FA695A695A695282F22952570F7
:105170009A2F9570290F922F937026952695920F4E
:10518000982797708981982B09F075C0A43008F092
:1051900072C080E18A95F1F75A9A529AB2E0BA95B4
:1051A000F1F700C05A98EA2EF12CEAE0AE9FD00148
:1051B0001124A050BF4F1896ED91FC91199730978C
:1051C000B1F0609174017091750116962D913C912A
:1051D0001797260F371F13968D919C911497680F80
:1051E000791F15964C91159712968C9109958AE026
:1051F0008E9DF0018F9DF00D1124E050FF4F6581D1
:10520000662351F020917401309175018681978158
:10521000820F931F0E9476280E94F027F0E1FA95F2
:10522000F1F75A9852985A9A80E18A95F1F78AE0F4
:105230008E9D80018F9D100D112400501F4FD801AD
:1052400012966C911297662371F12091740130913E
:10525000750113968D919C91820F931F0E942228B5
:10526000D801ED91FC91882311F088E001C082E023
:1052700080830E94E8270F90DF91CF91FF91EF91FB
:10528000BF91AF919F918F917F916F915F914F915E
:105290003F912F911F910F91FF90EF900F900FBEB4
:1052A0000F901F901895ED91FC91DFCF0F931F93F6
:1052B000CF93DF93EC0104970CF0A9C08AE08C9F98
:1052C000F0018D9FF00D1124E050FF4F80819181FE
:1052D000892B09F49CC0F894529A5A9885E08A95D3
:1052E000F1F700008C2F869585709C2F9570890FA3
:1052F000982F937086958695890F8E0193E0000F05
:10530000111F9A95E1F7082B0E94F02700C068E072
:10531000802F0E945528A0E1AA95F1F752985A9A39
:105320004A9B27C087E090E04A9925C08AE08C9F7D
:1053300080018D9F100D112400501F4FF8016581D1
:105340006623A1F1209174013091750186819781C6
:10535000820F931F0E942228811128C0529A5A9AC4
:10536000D801ED91FC9182E08083789482E090E016
:1053700016C000C0D5CF0197B9F4529A5A9A8AE064
:105380008C9FF0018D9FF00D1124E050FF4F019094
:10539000F081E02D81E08083789481E090E0DF91DE
:1053A000CF911F910F91089500C0BECF0E94E827B2
:1053B000B0E2BA95F1F75A98529AE0E1EA95F1F71E
:1053C0008AE08C9FF0018D9FF00D1124E050FF4F7B
:1053D0006281662351F020917401309175018381BF
:1053E0009481820F931F0E9476280E94F0278AE002
:1053F0008C9FF0018D9FF00D1124E050FF4F019024
:10540000F081E02D1082789490E080E0C8CF84E0B5
:1054100090E0C5CF991B79E004C0991F961708F05A
:10542000961B881F7A95C9F78095089587FB082EEB
:10543000062687FD819567FD61950E940A2A0EF474
:10544000919507FC8195089597FB072E16F400941B
:1054500007D077FD09D00E943E2A07FC05D03EF414
:10546000909581959F4F0895709561957F4F089510
:10547000EE0FFF1F0590F491E02D0994AA1BBB1BB2
:1054800051E107C0AA1FBB1FA617B70710F0A61B44
:10549000B70B881F991F5A95A9F780959095BC0165
:1054A000CD010895F999FECF92BD81BDF89A992753
:1054B00080B50895A8E1B0E042E050E00C94862A5F
:1054C000262FF999FECF92BD81BDF89A019700B4BD
:1054D000021639F01FBA20BD0FB6F894FA9AF99A5D
:1054E0000FBE08950396272F0E94612A0E94602A0A
:1054F000252F0E94612A242F0C94612A0196272FC0
:105500000E94612A0C94602ADC01CB01FC01F9990C
:10551000FECF06C0F2BDE1BDF89A319600B40D92FF
:1055200041505040B8F70895FB01DC0104C08D9153
:105530000190801921F441505040C8F7881B990B05
:105540000895FB01DC0102C001900D9241505040D2
:10555000D8F70895F894FFCF540B540B5D0B5D0BF7
:105560005F0B5D0B5D0B5D0B540B540B640B5D0B04
:105570005D0B640B02172A177D172A177D175D171D
:1055800095177D1792189F18831B831BFC1BFC1B10
:10559000561C701CB81BB81B9B1C711D801D801DE8
:1055A000B6010000000100000000B6010000000488
:1055B00001000000B601040500000000000001ED3C
:1055C00006370C160C120C0E0C0101736C6176651B
:1055D0005F6D61747269780073796E635F74696D71
:1055E000657200818283E200E900EA00B500B6003E
:1055F000B700CD008301CC008A0192019401210201
:10560000230224022502260227022A02B300B40044
:105610006F0070002A02946697C600000000F4F53F
:10562000F6F7313340B6228401CE00AC002A08439D
:04563000085C08000A
:00000001FF
