:100000000C94AE060C94F5060C94F5060C94072B94
:100010000C94F5060C94F5060C94F5060C94F50674
:100020000C94F5060C94F5060C942E130C94A91858
:100030000C9453240C94F5060C94F5060C94F506D8
:100040000C94F5060C94F5060C94F5060C94F50644
:100050000C94F5060C945B140C94F5060C94F506C0
:100060000C94F5060C94F5060C94F5060C94F50624
:100070000C94F5060C94F5060C94F5060C94F50614
:100080000C94F5060C94F5060C94F5060C94F50604
:100090000C94F5060C94F5060C94F5060C94F506F4
:1000A0000C94F5060C94F5060C94F5060631FF0940
:1000B00074A1010975150026FF00952075088102BD
:1000C0000976150026FF00952075089102C00501EC
:1000D0000902A10185020901A100050919012908E8
:1000E00015002501950875018102050109300931C6
:1000F0001581257F95027508810609381581257FB0
:10010000950175088106050C0A38021581257F9531
:100110000175088106C0C005010980A10185031988
:10012000012AB700150126B700950175108100C09E
:10013000050C0901A101850419012AA00215012657
:10014000A002950175108100C005010906A1018575
:1001500005050719E029E7150025019508750181B6
:10016000020507190029EF1500250195F075018199
:10017000020508190129059505750191029501757A
:10018000039101C005010906A101050719E029E74E
:1001900015002501950875018102950175088101F9
:1001A0000507190029FF150026FF0095067508812F
:1001B000000508190129059505750191029501753C
:1001C000039101C0000000000000000000000000DA
:1001D000000000000000000000000000000000001F
:1001E00000000000000000007E0F00D4FFFFFFC7EA
:1001F0000000007800000000000000002A2B28000A
:1002000000000000000000000000000000000029C5
:10021000000000002C1E3420212224342627252E05
:10022000362D3738271E1F2021222324252633333D
:10023000362E37381F0405060708090A0B0C0D0E69
:100240000F101112131415161718191A1B1C1D2F35
:100250003130232D350405060708090A0B0C0D0E55
:100260000F101112131415161718191A1B1C1D2F15
:100270003130354C0102E061630103E000203D3E76
:10028000207B7D00732F5E20202F003A73702000AA
:100290003A71010128003A7701012800444542558E
:1002A000473A2064697361626C65642E0A004445B4
:1002B0004255473A20656E61626C65642E0A000003
:1002C0000014001A000800150017000000040016B2
:1002D00000070009000A0000001D001B00060019AD
:1002E0000005000000000000002B6101512868009B
:1002F00000130012000C0018001C00000034000F56
:10030000000E000D000B0000003800370036001012
:10031000001100000000000000297402512C72003E
:10032000001E001F002000210022000000290028DC
:10033000004B004E002C0000001E021F0220022174
:100340000222020000000000000100010001000084
:10035000002700260025002400230000002D004F68
:1003600000520051005000000038006300250224B4
:100370000223020000000000000100035101000000
:1003800000655D635D000000002C050000E300E2F5
:1003900000E0002B0039000000645D665D210A204A
:1003A0000A675D0000000000000100035101000029
:1003B000002E002D00330233002800000030002FF3
:1003C00000E500350034000000270226023102312A
:1003D000002A0000000000000001000100010000F0
:1003E00000005CC65C0000000000000000C45CC7A8
:1003F0005CC85C00000076000000000000E100E244
:1004000000000000000000000001000100010000E9
:100410000014090000F200F100000000000000F0EC
:1004200000ED00EE00EF000000000000004F15514D
:10043000155015000000000000010001000100003F
:1004400000000000000000000000000000000000AC
:10045000000000000000000000000000000000009C
:10046000000000000000000000F200F300F10000B6
:10047000000000000000000000000000000000007C
:10048000000000000000000000000000000000006C
:10049000000000000000000000F200F300F1004F37
:1004A0006E6573686F743A206163746976653A208B
:1004B00025640A000A002530325820006B657962F5
:1004C0006F6172645F7265706F72743A200054617C
:1004D0007267657420636F6E6E65637465640D0A80
:1004E0000054617267657420646973636F6E6E6532
:1004F000637465642C207468726F74746C696E67C1
:1005000020636F6E6E656374696F6E2061747465CD
:100510006D7074730D0A004661696C656420746FB8
:1005200020657865637574652025730A00646973B6
:10053000706C61795F736574757032206661696C87
:1005400065640A0000DA0281FFD9F1DB20A4A62E3F
:10055000AF646973706C61795F666C6970706564B3
:10056000206661696C65640A0000A0C06F6C6564F8
:100570005F696E697420636D64206E6F726D616C6B
:1005800020726F746174696F6E206661696C656456
:100590000A0000A1C86F6C65645F696E69742063AE
:1005A0006D64207365742031206661696C65640A2E
:1005B0000000AED580A81FD300408D1420004B65ED
:1005C00079626F6172642073746172742E0A000A1A
:1005D0000025303862003A200025303258000A7277
:1005E0002F632030313233343536370A005370658B
:1005F0006369616C004E61762F53796D004E756DA5
:100600000042617365004C617965723A2000808117
:1006100082838485868788898A8B8C8D8E8F909142
:10062000929394A0A1A2A3A4A5A6A7A8A9AAABACA3
:10063000ADAEAFB0B1B2B3B4C0C1C2C3C4C5C6C71A
:10064000C8C9CACBCCCDCECFD0D1D2D3D4006F6C59
:1006500065645F72656E64657239302064617461CF
:10066000206661696C65640A006F6C65645F726521
:100670006E6465722064617461206661696C656492
:100680000A006F6C65645F72656E646572206F66E8
:100690006673657420636F6D6D616E642066616959
:1006A0006C65640A006F6C65645F6F666620636DDD
:1006B00064206661696C65640A0000AE0A0025303A
:1006C0003258006B6579626F6172645F7365745F45
:1006D0006C65643A20005B735D00290A0025750093
:1006E0002F002575005D280025640020002564008A
:1006F000200025640020002564007C00253032584D
:10070000006D6F7573656B6579205B62746E7C78C4
:100710002079207620685D287265702F61636C29CE
:100720003A205B006F6C65645F6F6E20636D6420C0
:100730006661696C65640A0000AF6164645F6B6543
:10074000795F6269743A2063616E27742061646422
:100750003A20253032580A0064656C5F6B65795F1A
:100760006269743A2063616E27742064656C3A2074
:10077000253032580A005B435D005B445D005B53EB
:100780005D005B575D005B525D0009025B00030189
:1007900000A0FA0904000001030101000921110170
:1007A00000012240000705810308000A0904010036
:1007B000010300000009211101000122B600070514
:1007C000820320000A09040200020300000009213C
:1007D0001101000122220007058303200001070503
:1007E000030320000112010002000000085346012B
:1007F000000100010200010C0343006F0072006E53
:100800000065000000100366006F006F0073007445
:100810000061006E0000000403090407087F080758
:10082000003E5B4F5B3E003E6B4F6B3E001C3E7CD0
:100830003E1C00183C7E3C18001C577D571C001CB9
:100840005E7F5E1C0000183C180000FFE7C3E7FF56
:1008500000001824180000FFE7DBE7FF0030483AEB
:10086000060E00262979292600407F05050700404D
:100870007F05253F005A3CE73C5A007F3E1C1C0880
:1008800000081C1C3E7F0014227F2214005F5F00C2
:100890005F5F0006097F017F00006689956A00603E
:1008A000606060600094A2FFA2940008047E0408C7
:1008B0000010207E20100008082A1C0800081C2AAE
:1008C0000808001E10101010000C1E0C1E0C00302A
:1008D000383E383000060E3E0E06000000000000D4
:1008E0000000005F000000000700070000147F14F4
:1008F0007F1400242A7F2A12002313086462003622
:100900004956205000000807030000001C22410047
:10091000000041221C00002A1C7F1C2A0008083EFF
:10092000080800008070300000080808080800006F
:1009300000606000002010080402003E5149453E5E
:100940000000427F40000072494949460021414968
:100950004D33001814127F10002745454539003CDF
:100960004A494931004121110907003649494936B0
:1009700000464949291E00000014000000004034D0
:100980000000000008142241001414141414000084
:1009900041221408000201590906003E415D594EEA
:1009A000007C1211127C007F49494936003E4141CA
:1009B0004122007F4141413E007F49494941007F3A
:1009C00009090901003E41415173007F0808087F71
:1009D0000000417F4100002040413F01007F08149A
:1009E0002241007F40404040007F021C027F007F88
:1009F0000408107F003E4141413E007F090909067D
:100A0000003E4151215E007F0919294600264949CF
:100A100049320003017F0103003F4040403F001F77
:100A20002040201F003F4038403F006314081463FB
:100A3000000304780403006159494D4300007F41DD
:100A4000414100020408102000004141417F0004A0
:100A5000020102040040404040400000030708003B
:100A6000002054547840007F2844443800384444DF
:100A7000442800384444287F003854545418000057
:100A8000087E09020018A4A49C78007F080404785A
:100A90000000447D4000002040403D00007F1028C1
:100AA00044000000417F4000007C04780478007C12
:100AB0000804047800384444443800FC18242418FE
:100AC0000018242418FC007C08040408004854542E
:100AD00054240004043F4424003C4040207C001C7B
:100AE0002040201C003C4030403C0044281028445A
:100AF000004C9090907C004464544C4400000836B4
:100B000041000000007700000000413608000002AC
:100B100001020402003C2623263C000000000000E5
:100B200000404040F0F8F8FF38FFF8F83FF8F8FFD1
:100B300038FFF8F8F040404000000000000080C09E
:100B4000C0C0800000C0C08000000080C0C000C0E5
:100B5000C0000080C0C00000000000C0C0C0C0C015
:100B600000C0C00000000000000000000000000005
:100B70000000000000000000000000000000000075
:100B80000000000000000000000000000000000065
:100B900000000000000000000000C0F0F8FC3E1E55
:100BA00006010000007F4141417F007F4141417FBC
:100BB000000080C0E07E5B4F5BFEC00000C000DC38
:100BC000D7DEDEDED7DC00C0000000000000000041
:100BD0000000000000000000000000000000000015
:100BE00000494949FFFFFFFFE0DFBFBF00BFBFDF94
:100BF000E0FFFFFFFF49494900000000001F3F6080
:100C000060E0BF1F007F7F071E381E077F7F007FC9
:100C10007F0E1F3B716000000000007F7F0C0C0CFA
:100C2000007E7E007F7E0303007F7E03037E7E03C3
:100C3000037F7E000F3E703C063C703E0F00327B0F
:100C400049493F7E007F7E0303001E3F69696F268E
:100C500000000000000000000000030F1F3F3C7870
:100C600070600000007F4141417F007F4141417F32
:100C700000307B7F7830202030787F3B0003000FEE
:100C80007F0F0F0F7F0F0003000000000000000027
:100C90000000000000000000000000000000000054
:100CA00000010101070F0F7F0F7F0F0F7E0F0F7FD6
:100CB0000F7F0F0F0701010100000000000000007E
:100CC0000000010100000000000000000000000022
:100CD0000000000000000000000000000000000014
:100CE0000000000000000000000000000000000004
:100CF00000000000000000000000000000000000F4
:100D000000000000000000000000000000000000E3
:100D100000000000000000000000000000000000D3
:100D200000000000000000000000000000000000C3
:100D300000000000000000000000000000000000B3
:100D400000000000000000000000000000000000A3
:100D500000000000000000000000000011241FBE81
:100D6000CFEFDAE0DEBFCDBF04B603FE27C080912F
:100D7000540590915505A0915605B09157058730BF
:100D8000904BA740B04BD1F41092540510925505EA
:100D9000109256051092570514BE84B7877F84BF02
:100DA0000FB6F894A89580916000886180936000E8
:100DB000109260000FBEE0E0F8E3099511E0A0E0BA
:100DC000B1E0EEE4F0E602C005900D92AE3EB10750
:100DD000D9F725E0AEEEB1E001C01D92A435B2070F
:100DE000E1F70E947A240C94F22F0C940000FF93F8
:100DF000EF93E091EE01F091EF01309709F0099542
:100E0000EF91FF910895FC018591803011F0EFDFA3
:100E1000FBCF0895FF27E0E230E247FF0CC0419589
:100E200097FF09C0EDE26095709580959095611DE2
:100E3000711D811D911D27FF02C0219530E350E2F5
:100E4000AA27660F771F881F991FAA1FA41710F0E3
:100E5000A41B63955A95A9F7AA3008F0A95FA05D75
:100E6000AF93F395611571058105910541F7ED3259
:100E700011F4EF93F395F21718F43F93F395FBCF2A
:100E80008F91B5DFFA95E1F70895E991F991859190
:100E9000803021F0853219F0AADFF9CF089520E0E3
:100EA000E89455915532C1F3503311F4689455913B
:100EB0005A3348F4505390F3220F022E220F220F80
:100EC000200D250FF4CF0EF4219589919991533679
:100ED00019F3533729F1533559F1BC018827992764
:100EE000E8945C3621F4899199916894559154362F
:100EF00039F446EF7EF077FF0DC08FEF9FEF0AC009
:100F000055374AE039F0583540E121F0523642E099
:100F100009F00895FF93EF937DDFEF91FF91B7CF35
:100F2000FF93EF93FC0181918030B9F360DFFBCF39
:100F3000FF93EF9368DFF1CFDF93CF93CDB7DEB7A9
:100F40002596A3DFCF91DF910895FC01AC014C5FA2
:100F50005F4F8FEF91E32191822728E030E087FFF8
:100F600009C0880F892721503109C9F7E417F5070F
:100F700091F70895880FF7CFE8EDF0E080818E7F3C
:100F800080831092E2001092DA001092E100A0EE4D
:100F9000B0E08C9181608C9380818F77808319BCC5
:100FA000A7EDB0E08C918E7F8C9380818F7E8083C3
:100FB0001092170308952091E4003091E50095E622
:100FC000A9012091EC00822F817020FF06C0809142
:100FD000E80080FF06C080E008952091E80022FD2F
:100FE0001AC080913C03882389F0853089F0809174
:100FF000EB0085FD0FC02091E4003091E500421721
:101000005307F9F29150E1F684E0089582E00895E3
:1010100083E0089581E00895EF92FF920F931F936C
:10102000CF937C018B010E94DB07C82F811117C071
:101030008091E80085FD0BC08091E8008E77809359
:10104000E8000E94DB07882399F3C82F08C0F70146
:1010500081917F018093F1000150110949F78C2F94
:10106000CF911F910F91FF90EF90089580913E03D3
:1010700087FF13C08091E80082FF06C08091E800DE
:101080008B778093E80004C080913C038111F2CFFC
:10109000089580913C038823D9F38091E80080FF74
:1010A000F8CF8091E8008E77ECCF982F9093E900ED
:1010B000242F762F50E0891731F07091EC002091A9
:1010C000ED005091F00021FD07C09F5F973071F750
:1010D0008093E90081E008953091EB003E7F3093EA
:1010E000EB003091ED003D7F3093ED003091EB004F
:1010F00031603093EB007093EC002093ED0050933F
:10110000F0002091EE0027FDE0CF80E00895CF921F
:10111000DF92EF92FF920F931F93CF93DF93C8ED6F
:10112000D0E088818F7E8883E7EDF0E08081816068
:10113000808384E082BF81E08093170388818E7F63
:10114000888302EE10E0F80110821092DA0081EE3E
:10115000C82ED12CF601108288818F7788838881F0
:101160008068888388818F7D888319BC10923C03B6
:1011700010923D0310923B0310923A0390EEE92E39
:10118000F12CF70180818B7F808388818160888347
:1011900042E060E080E00E945508F60180818E7F89
:1011A0008083F80180818160808380818860808372
:1011B000F70180818E7F8083888180618883DF91C1
:1011C000CF911F910F91FF90EF90DF90CF900895F6
:1011D000FC01809144039091450386179707A0F086
:1011E0006115710529F49091E8009E779093E800CD
:1011F00090E06115710551F4911108C08091E800EB
:1012000082FF34C080E00895BC01F2CF80913C039E
:101210008823C1F18530C1F18091E80083FD30C0A1
:101220008091E80082FDEACF8091E80080FFE1CF65
:101230008091F3002091F200382F6115710519F0AB
:101240002830310558F091E02830310509F090E060
:101250002091E8002E772093E800CBCF81918093F6
:10126000F100615071092F5F3F4FE7CF80913C0340
:10127000882341F0853041F08091E80083FFBECFA4
:1012800081E0089582E0089583E008958091190334
:1012900008952FB7F89460910B0370910C0380911F
:1012A0000D0390910E032FBF0895209107033091F5
:1012B00008032817390771F09093080380930703F8
:1012C000E0910503F0910603309721F00084F18549
:1012D000E02D099408952091030330910403281709
:1012E000390771F09093040380930303E0910503A1
:1012F000F0910603309721F00680F781E02D0994E4
:1013000008954091F9028D3E59F48091FA0287FFC9
:101310000DC01092FA0241110BC01092F20208C0E7
:101320008E3E81F48091FA0218169CF3442381F0DA
:101330008091FB029091FC02892B09F05AC0109217
:10134000F00208958F3E49F447FFF0CF1092F90262
:101350008091FA028111ECCFE0CF803F19F414168E
:10136000ACF3E4CF9091FB02893F29F41916F4F60F
:101370001092FB02DBCF8A3F19F497FFD7CFF8CF4B
:101380009091FC028B3F29F497FFD0CF1092FC0282
:10139000CDCF8C3F19F41916CCF3C8CF9FE0980F2E
:1013A000983090F4815F990B21E030E0B90102C0E0
:1013B000660F771F8A95E2F7CB0180959091F8022E
:1013C00089238093F802B2CF8D3F31F48091F102EE
:1013D0008E7F8093F102AACF8E3F21F48091F1029B
:1013E0008D7FF7CF8F3F09F0A1CF8091F1028B7FE6
:1013F000F0CF08958091F10280FD16C081FD16C0E6
:1014000082FD16C08091F0028823A1F0883280F41A
:1014100028E0829FC001112468E270E00E94A12CA4
:10142000862F672B39F0089582E0089584E00895AF
:1014300088E0089581E008958091F10280FD14C054
:1014400081FD14C082FD16C08091F202882381F0D4
:10145000843180F422E3829FC001112464E170E0B2
:101460000E94A12C862F08958CE0089589E10895AB
:1014700085E0089582E308958D3E31F40E941C0AB0
:1014800081958093FA0208958E3E19F40E941C0AF9
:10149000F8CF8F3E31F40E941C0A81958093F902A7
:1014A0000895803F19F40E941C0AF8CF893F29F45F
:1014B0000E94FA098093FB0208958A3F21F40E945A
:1014C000FA098195F7CF8B3F31F40E94FA09819593
:1014D0008093FC0208958C3F19F40E94FA09F8CF1A
:1014E0009FE0980F983070F4815F990B21E030E015
:1014F00001C0220F8A95EAF78091F802822B80932F
:10150000F80208958D3F31F48091F102816080935B
:10151000F10208958E3F21F48091F1028260F7CFAD
:101520008F3FB9F78091F1028460F1CFF894E82FF2
:10153000E295EF70F0E031A1282F2F7081E090E06C
:1015400001C0880F2A95EAF7982F9095932391A3CD
:1015500092A1892B82A37894089590910F0392FF12
:1015600006C0282F28712830F9F4877F846093FF04
:1015700006C0282F28712831F1F4877E84612091DC
:10158000100320FF06C0382F38713830D9F4877F18
:10159000816021FF06C0282F28712831D1F4877E71
:1015A000816194FD877E0895282F24712430F9F6F7
:1015B0008B7F8860DCCF282F2471243101F78B7E4C
:1015C0008861DDCF382F3171313019F78E7F886017
:1015D000E0CF282F2171213121F78E7E8861E1CF64
:1015E000CF93DF93EC0182389105A9F1D8F58133CF
:1015F000910509F496C048F58932910509F48AC02D
:101600008A9709F495C0C11521E5D20708F0BCC03E
:10161000C11530E5D30708F014C1C83ED10508F064
:101620009CC0C13ED10560F5C83AD10508F087C01D
:10163000C53AD10508F0FDC0C130D10509F12097A8
:10164000F9F0C430D105E0F440C08533910509F4C8
:101650005AC0C997C1F680910F03837089F0C0EE1C
:10166000D0E00EC0833E910599F170F4803E910563
:1016700001F1823E910539F680910F0382FD21C070
:10168000CE01DF91CF910895863E910561F1873EAD
:10169000910571F1843E910509F0B5CF8091100359
:1016A00081FFEECF80910F03C7EED0E084FD0DC027
:1016B000E7CF80910F0380FD12C19091100390FF3E
:1016C000DFCFC3EED0E084FFDBCFD0E0C0E0D8CFE7
:1016D00080910F0382FD06C19091100390FDBFCF52
:1016E00084FFCECFF2CF80910F0383FDDDCFC8CF33
:1016F00080910F0383FDF9C09091100391FFF0CF0B
:10170000C4EED0E0BDCF80910F0385FFB9CFC9E211
:10171000D0E0B6CF80910F0385FFB2CFC5E3D0E014
:10172000AFCF80910F0386FFABCFCAE2D0E0A8CF46
:1017300080910F0386FFA4CFC1E3D0E0A1CFCF3BC0
:10174000D10518F6C85AD0E0CC0FDD1FC756DE4FC2
:101750000990D881C02DD46493CFC11540E2D4073D
:1017600058F4C11581E0D80708F08ACFCD3ED105E5
:1017700008F4ABCFD06584CFC11590E4D90708F445
:10178000A4CFDF70D06A7CCFC11525E5D20700F564
:10179000C11534E5D30708F08AC0C11543E5D40765
:1017A00008F071C0C11582E5D80708F467C0CE0102
:1017B0008370992721E030E002C0220F331F8A9501
:1017C000E2F7C695C69580E2C89FE001112452C099
:1017D000C11599E5D907A8F4C11528E5D20708F085
:1017E0006BC0C11536E5D30708F06FCF8C2F0E9470
:1017F000AD0AC82FD0E0DC2FCC27CC27DF71D06218
:101800003FCFC1154AE5D40708F45BC0CE0190561E
:101810008115904208F059CF8D2F8F710E94AD0A2B
:1018200090E0982F882788279F719C012C2BE90135
:10183000E6CFC55AD0E0CA56DE4FC881D0E0D064AA
:101840001FCFCE01E4E096958795EA95E1F7837086
:101850002C2F26952695237040E2249F9001112479
:10186000382B8C2F8370C1E0D0E002C0CC0FDD1F7D
:101870008A95E2F7C22BD32BDC6802CFDC2FCC2772
:10188000C16FD06AFDCECE018370992721E030E090
:1018900002C0220F331F8A95E2F7C695C69590E2E3
:1018A000C99FE0011124C22BD32BDA68E9CEDC2FCB
:1018B000CC27C46FD06AE4CEDC2FCC27C06FD06AAF
:1018C000DFCE8C2F8F700E94AD0A34E0D695C7957D
:1018D0003A95E1F7CF709C2FEC01D069D1CEC9E3E6
:1018E000D0E0CECEC2EED0E0CBCEC6EED0E0C8CEB9
:1018F00080916C02811110926C02089580916702B0
:1019000090913602981301C008958F5F8770FACFC7
:10191000AF92BF92CF92DF92EF92FF920F931F93FD
:10192000CF93DF93C090A702D090A802E090A902C5
:10193000F090AA0240916D0250916E0260916F0288
:1019400070917002C42AD52AE62AF72ACFE1D0E0A6
:10195000082F10E026E0929F000D111D112490E346
:10196000A92EBC2ED701C6010C2E04C0B695A79592
:10197000979587950A94D2F780FD0FC0219788F735
:10198000B12C8B2DDF91CF911F910F91FF90EF9094
:10199000DF90CF90BF90AF900895AC9EF001AD9EC8
:1019A000F00D1124E00FF11FEE0FFF1FE154FD4F6A
:1019B000859194910E94F00A019701F3E2CFCF93B1
:1019C000DF93EC010E94880CEC2FF0E096E0D99FA9
:1019D000E00DF11D112490E3899FE00DF11D11240C
:1019E000EE0FFF1FE154FD4F85919491DF91CF9150
:1019F0000C94F00AE92FEE0FE90FEE0F8E0F982FDF
:101A0000977086958695869525E0829FF001112432
:101A1000EE5EFD4F50E040E080E0219130E0092E85
:101A200002C0369527950A94E2F721703327042ED9
:101A300001C0220F0A94EAF7822B4F5F5F4F4530B7
:101A4000510559F70895E92FEE0FE90FEE0F8E0FAC
:101A5000982F977041E001C0440F9A95EAF7869558
:101A60008695869595E0899FF0011124EE5EFD4FE5
:101A700030E020E070E05191DF011197CB01022EA0
:101A800002C0969587950A94E2F781708195852723
:101A9000842385278C932F5F3F4F2530310559F7DD
:101AA0000895FC01808191810E94DF0C292F2F7005
:101AB00092959F7092509E3078F4E92FF0E0EC50B0
:101AC000F04D0C94B52C803F19F020F4883E20F4A2
:101AD00081E00895843FE1F380E00895883EC0F3FB
:101AE000813FD1F7F5CF822F86958695869508950B
:101AF000829590E09C01220F331F220F331F2C7C14
:101B000095958795959587958373282B30E0C90126
:101B1000880F991F8A7A359527952575822B089508
:101B2000CF93DF93682F81E06A3019F06D3029F48C
:101B300080E0DF91CF910C941F0E8091520590911F
:101B4000530526E0FC01ACE4B5E001900D922A9526
:101B5000E1F7603E08F45AC026E0FC0111922A9594
:101B6000E9F7C0915205D091530546E050E0BE011F
:101B70008CE495E00E94FB2C9E012C543340892B71
:101B800041F1C90145E0969587954A95E1F741E015
:101B900050E0BA0102C0660F771F8A95E2F7CB01C9
:101BA00060914A0370914B03862B972BB9016B5FB1
:101BB0007F4FE5E076956795EA95E1F702C0440F1F
:101BC000551F6A95E2F7842B952B90934B038093D6
:101BD0004A032A5F3F4F40914903642F70E0C901D7
:101BE0000E94812C481B463010F4240F311D211512
:101BF00072E0370710F030E020E0245B3C4F309378
:101C0000530520935205DF91CF910895F6E06F9F21
:101C1000B0011124655E774F46E050E00E94F22C3F
:101C2000A0CFCF93DF93EC01FE018491811103C01B
:101C3000DF91CF9108950E94900D2196F5CFCF931B
:101C4000382FE0915205F0915305EC54F340209168
:101C50004903622F70E0CF010E94812C281B822F44
:101C6000332361F066E00E94952CC82FC15010F418
:101C7000CF91089580E20E94900DF8CF9F01280F28
:101C8000311D2115324018F080E0F0E0E0E08E0FC9
:101C90009F2F911D845B9C4F909353058093520519
:101CA000E7CFCF92DF92EF92FF920F931F93CF93E4
:101CB000DF936C017B0164E670E088E70E945E2997
:101CC000EC0197FD12C010E000E0F601E00FF11FFB
:101CD000849164E670E00E94D829EC01892B29F4F4
:101CE0000F5F1F4F0E151F0581F70E945B2ACE0163
:101CF000DF91CF911F910F91FF90EF90DF90CF90E8
:101D00000895CF93C0910103809102038823F1F0DD
:101D10000E944909605A75418F4F9F4F6093FD02A1
:101D20007093FE028093FF0290930003C1110CC0D8
:101D300062E070E088E397E00E94510E892B49F041
:101D400084E297E00E940307C09101038C2FCF919A
:101D5000089581E080930103F7CF9FB7F894109224
:101D600015039FBF90913C03943009F048C0209127
:101D7000E9002F703091EC00932F917030FD90E8C6
:101D8000922B23E02093E9002091EB0020FF34C048
:101D90002091EE0027FF30C020911403222321F070
:101DA0002091E80025FF28C01092140326E030910E
:101DB000E80035FF14C08093F1008091E80085FDB4
:101DC00027C08091E80080FFFCCF8091E8008E77EB
:101DD0008093E8009F709093E90080E0089530912F
:101DE0003C03343049F43091EB0035FD05C02150FF
:101DF00041F481E0809314039F709093E9008FEF8A
:101E00000895EFE9FFE03197F1F700C00000CFCF70
:101E10008FB7F89421E0209315038FBFDBCF90910B
:101E20003C03943031F58093110370931303609356
:101E3000120382E08093E9008FEF9091E8008150D7
:101E400095FD06C095ED9A95F1F700008111F5CF4B
:101E50008091E80085FF0DC050E040E063E070E055
:101E600081E193E00E940C088091E8008E778093D6
:101E7000E8000895BC0184E00C940F0FBC0183E0DE
:101E80000C940F0F9C0182E08093E9009FEF8091FA
:101E9000E800915085FD06C085ED8A95F1F70000B8
:101EA0009111F5CF8091E80085FF0CC050E040E033
:101EB00066E070E0C9010E940C088091E8008E770E
:101EC0008093E8000895CF93DF93EC018091300177
:101ED0008823B1F180910F0387FF32C060E282E076
:101EE0008093E9008FEF9091E800815095FD06C046
:101EF00095ED9A95F1F700008111F5CF8091E800FA
:101F000085FF1BC08091300170E050E040E08111FE
:101F100004C050E040E068E070E0CE010E940C0890
:101F20008091E8008E778093E80080E2FE01AAE1CC
:101F3000B3E001900D928A95E1F7DF91CF9108957A
:101F400068E081E0CDCF81E08093E00080E2809383
:101F5000D8001092C9008FE19EE40197F1F700C00C
:101F6000000087E090EBDC018093540590935505C9
:101F7000A0935605B093570588E19CE00FB6F894FE
:101F8000A895809360000FBE90936000FFCF809172
:101F90007A02811110C08091D80080618093D800AE
:101FA0008AE18A95F1F700C08091D90080FF0AC0CC
:101FB00081E080937A0281E090917A02913009F079
:101FC00080E0089582E080937A020E94BC0710921C
:101FD0003C03F1CF0E94C70F882351F0E091050325
:101FE000F0910603309721F00190F081E02D0994E3
:101FF00080E0089520913001222351F120910F03B8
:1020000027FF26C0E62FE695E695E695EE3178F4B3
:10201000E80FF92FF11D677021E030E001C0220FB9
:102020006A95EAF72095828128232283089580917A
:10203000090380FF19C01F926F9388E597E09F9373
:102040008F930E949C070F900F900F900F90089510
:10205000FC01329608962191621303C0DF011197AB
:102060001C92E817F907B9F708952091300122234F
:1020700049F120910F0327FF25C0E62FE695E6954D
:10208000E695EE3170F4E80FF92FF11D677021E04D
:1020900030E001C0220F6A95EAF78281822B8283A9
:1020A00008958091090380FF1EC01F926F938AE3F9
:1020B00097E09F938F930E949C070F900F900F9033
:1020C0000F900895FC0132962FEF30E04191641794
:1020D00051F02F3F19F4411101C0232F3F5F3630DB
:1020E000A9F72F3F09F40895820F911D27FD9A95B6
:1020F000FC01628308957F928F929F92AF92BF926C
:10210000CF92DF92EF92FF920F931F93CF93DF93C3
:102110007C015B01842E752E690180917B0201E0B8
:1021200010E08A3010F40AE010E0C1E0D0E0F8944A
:10213000B501C701F6010995982E7894811114C054
:1021400021960C171D07FCF48091090380FF0CC039
:102150007F928F9287E195E09F938F930E949C07D7
:102160000F900F900F900F90892DDF91CF911F91BD
:102170000F91FF90EF90DF90CF90BF90AF909F9026
:102180008F907F900895CC9F9001CD9F300D300DA2
:10219000112490E080E045E34A95F1F700000196B4
:1021A00028173907C1F7C3CFEF92FF920F931F9300
:1021B000CF93DF9380916B0290916A02892B90916B
:1021C0006902892B8093F00190916C029923B1F000
:1021D000892B8093F00180913001882309F45DC040
:1021E00080910F0387FF59C08EE1E2EFF1E090E0AC
:1021F000815008F054C091110E94780CE0910503C1
:10220000F0910603309709F450C080913001882383
:1022100059F080910F0387FF07C08091F0018093F0
:10222000F10185E08093F0010280F381E02D80EFE1
:1022300091E009958091090382FF37C080FF04C0B7
:102240008CEB94E00E940307C0EFD1E088EFE82E0A
:1022500081E0F82E06EB14E08091090380FF0BC0AB
:1022600088811F928F931F930F930E949C070F905A
:102270000F900F900F902196EC16FD0669F7809154
:10228000090380FF12C084EB94E0DF91CF911F918E
:102290000F91FF90EF900C94030786E0A6CF219159
:1022A000222309F4A5CF9F5FA3CFDF91CF911F9188
:1022B0000F91FF90EF900895882341F080959091C1
:1022C0006B02892380936B020C94D41008958823A9
:1022D00039F090916B02982B90936B020C94D41070
:1022E0000895CF9384E090E00E94B02FC82F82E23F
:1022F00090E00E94B02F982F8C2FCF9108950F93CC
:102300001F93CF93DF9300D000D0CDB7DEB74091BD
:102310008D0250918E0260918F02709190022FB7C2
:10232000F89480910B0390910C03A0910D03B09150
:102330000E032FBF841B950BA60BB70B843691059C
:10234000A105B10588F10E94C70F882379F10E9489
:1023500049096E5F7F4F8F4F9F4F69837A838B83CD
:102360009C8380911701909118018C579D4F40914B
:10237000160150E04530510510F044E050E0BE0138
:102380006F5F7F4F0E94082D82E090E00E94CD2B6E
:10239000892BD9F40E94490960938D0270938E02B3
:1023A00080938F029093900281E010C00E944909AF
:1023B0000091910210919202209193023091940227
:1023C000600F711F821F931FC4CF80E00F900F908A
:1023D0000F900F90DF91CF911F910F9108950F9360
:1023E0001F93CF93DF9300D000D00F92CDB7DEB70D
:1023F0008B0190E080E00E94CD2B892B09F085C0F5
:102400004091050150E04115510511F041E050E0C7
:1024100060910601709107016C577D4FCE010596C2
:102420000E94082D409180025091810260918202A9
:10243000709183022FB7F89480910B0390910C0355
:10244000A0910D03B0910E032FBF841B950BA60B1B
:10245000B70B84369105A105B10540F485E892E0FB
:102460000E94A5079D81891709F45FC081E090E073
:102470000E94CD2B892BC1F080E040917C025091CD
:102480007D0260917E0270917F02F801408351834A
:10249000628373830F900F900F900F900F90DF91D6
:1024A000CF911F910F91089540910F0150E0453059
:1024B000510510F044E050E060911001709111015D
:1024C0006C577D4FCE0101960E94082D85E892E061
:1024D0000E94A5079D818913CFCF0E94490960936F
:1024E000800270938102809382029093830289819B
:1024F0009A81AB81BC8180937C0290937D02A093F2
:102500007E02B0937F0281E0B8CF80E040918502E7
:1025100050918602609187027091880249835A83A4
:102520006B837C838111E3CFA8CF81E0EFCF69EE8D
:102530007EEF90E080E00E94DC2F60E082E090E09F
:102540000E94BE2F60E083E090E00E94BE2F1092B8
:102550006D0210926E0210926F021092700260E093
:1025600084E090E00E94BE2F60E082E290E00E9452
:10257000BE2F60E085E090E00E94BE2F60E086E024
:1025800090E00E94BE2F6FEF87E090E00E94BE2F88
:1025900040E050E0BA0188E090E00E94D02F60E077
:1025A0008DE090E00E94BE2F40E050E0BA0188E14B
:1025B00090E00E94D02F60E087E190E00E94BE2F63
:1025C00040E050E0BA018CE190E00E94D02F70E032
:1025D00060E080E290E00E94DC2F40E050E0BA0131
:1025E00088E190E00E94D02F40E050E0BA018FE0F7
:1025F00090E00E94D02F40E050E0BA0183E190E0EB
:102600000C94D02FCF93DF93D82FC0911003C2FB2F
:10261000882780F98D17F9F0D0FBC2F9C093100319
:1026200060910F0384E090E00E94BE2F6C2F82E245
:1026300090E00E94BE2F8091090380FF0CC01F9282
:10264000DF938FE994E09F938F930E949C070F90F4
:102650000F900F900F90DF91CF9108951F920F92DE
:102660000FB60F9211242F933F934F935F936F9365
:102670007F938F939F93AF93BF93EF93FF9380913B
:10268000E10082FF15C08091E20082FF11C08091BD
:10269000E1008B7F8093E100209116032F5F822F52
:1026A00062E30E94952C992309F4BEC0209316037F
:1026B0008091DA0080FF28C08091D80080FF24C07C
:1026C0008091DA008E7F8093DA008091D90080FFBC
:1026D000E1C080E189BD82E189BD09B400FEFDCF82
:1026E00081E080933C0386E797E00E940307809196
:1026F0001703811109C00E94BC070E9487088091BE
:10270000E20084608093E2008091E10080FF1BC0C2
:102710008091E20080FF17C08091E2008E7F80935D
:10272000E2008091E20080618093E2008091D80015
:1027300080628093D80019BC85E080933C038EE7CB
:1027400097E00E9403078091E10084FF2DC08091F3
:10275000E20084FF29C080E189BD82E189BD89B59D
:10276000982F917080FFFBCF8091D8008F7D809350
:10277000D8008091E1008F7E8093E1008091E2009B
:102780008F7E8093E2008091E20081608093E2007E
:1027900080913D03882309F487C084E080933C0343
:1027A00082E897E00E9403078091E10083FF2BC03D
:1027B0008091E20083FF27C08091E100877F8093B2
:1027C000E10082E080933C0310923D038091E100A0
:1027D0008E7F8093E1008091E2008E7F8093E20003
:1027E0008091E20080618093E20042E060E080E05E
:1027F0000E9455088091F00088608093F00086E880
:1028000097E00E940307FF91EF91BF91AF919F91D5
:102810008F917F916F915F914F913F912F910F9089
:102820000FBE0F901F9018951092160380911503FC
:10283000882309F43DCF80913C038430C1F490910A
:10284000E9009F702091EC00822F817020FD80E8CC
:10285000892B93E09093E9009091EB0090FF04C0E6
:102860009091EE0097FD08C08F708093E900109260
:1028700015031ECF1092F1009091E80095FDFACF5C
:102880009091E80090FFF0CF9091E8009E779093B0
:10289000E800EACF19BC10923C038AE797E00E9457
:1028A00003071092170330CF8091E30087FD93E078
:1028B00090933C0375CF78941F921FB61F921124FA
:1028C0008F939F93AF93BF9380910B0390910C03D1
:1028D000A0910D03B0910E030196A11DB11D80932F
:1028E0000B0390930C03A0930D03B0930E03BF91C1
:1028F000AF919F918F911F901FBE1F9018959C01C3
:102900004FB7F89480910B0390910C03A0910D03A5
:10291000B0910E034FBF821B930B08952FB7F8940D
:1029200080910B0390910C03A0910D03B0910E03C5
:102930002FBF08958091090383FF7EC081E097E057
:102940000E9403078091F8021F928F938CEF96E00C
:102950009F938F930E949C078AEF96E00E94030743
:102960008091F902282F082E000C330B3F938F9390
:1029700087EF96E09F938F930E949C0785EF96E0E8
:102980000E9403078091FA02282F082E000C330BB7
:102990003F938F9382EF96E09F938F930E949C07C3
:1029A00080EF96E00E9403078091FB02282F082EFB
:1029B000000C330B3F938F938DEE96E09F938F9394
:1029C0000E949C078BEE96E00E9403078091FC0218
:1029D000282F082E000C330B3F938F9388EE96E040
:1029E0009F938F930E949C0785EE96E00E940307B9
:1029F0008091F2021F928F9382EE96E09F938F93C5
:102A00000E949C0780EE96E00E9403078091F102ED
:102A10001F928F938DED96E09F938F930E949C075A
:102A20008AED96E00E9403078DB79EB74C960FB6CD
:102A3000F8949EBF0FBE8DBF0E948E149C01909192
:102A4000F9028091FA02982B21F03093F60220933C
:102A5000F5029091FB028091FC02982B21F03093BB
:102A6000F4022093F302E0910503F09106033097FE
:102A700049F082E08093F7020480F581E02D87EF32
:102A800092E00994089590E080E00E946B0990E044
:102A900080E00E94550910926A02109269020E9419
:102AA000D41086E0E7EFF2E0DF011D928A95E9F7A6
:102AB0001092F2021092F0021092F1020C949A1409
:102AC0006093A7027093A8028093A9029093AA0230
:102AD0000C9443150F931F9341E050E060E070E0C9
:102AE00004C0440F551F661F771F8A95D2F7CB018C
:102AF000BA0160957095809590950091A70210910C
:102B0000A8022091A9023091AA0260237123822396
:102B100093231F910F910C946015909168028095FA
:102B2000892380936802282F277039F4282F082ED4
:102B3000000C330B9217130621F49091100392FFAF
:102B400007C08595859585950E946A151092680243
:102B500008950F931F9341E050E060E070E004C0DF
:102B6000440F551F661F771F8A95D2F78091A702E1
:102B70009091A802A091A902B091AA028A019B019A
:102B8000082B192B2A2B3B2BC901B8011F910F9140
:102B90000C94601560936D0270936E0280936F02C7
:102BA000909370020C94431510926B028091300147
:102BB000E2EFF1E0882359F080910F0387FF07C00F
:102BC0008EE1DF011D928A95E9F70C94431586E0AA
:102BD000F8CF1F93CF93DF93CDB7DEB7AA970FB689
:102BE000F894DEBF0FBECDBF8EE393E02091F100DD
:102BF000DC012D93CD01B3E086349B07B9F78091BA
:102C00003F03833009F46FC0B8F4813009F446C043
:102C1000823009F4B0C08091E80083FF38C1809110
:102C20003E0390913F039A3008F031C1E92FF0E064
:102C3000EE5FFF4C0C94B52C8A3009F48BC08B30BE
:102C400009F46EC0893039F780913E03813219F75B
:102C500080914203909143030297E8F68091E80047
:102C6000877F8093E8008091E80082FF37C09091D1
:102C7000F3008091F200029729F48091F1008B7F9C
:102C8000813021F48091F100809319038091E80054
:102C90008B778093E8000E943608BDCF80913E0379
:102CA000813A09F0B8CF8091E800877F8093E800EF
:102CB0008091420390914303892B61F460E28AE1A1
:102CC00093E070E00E94E8088091E8008B778093A1
:102CD000E800A1CF60E090E080E0F3CF80913C037A
:102CE0008111C1CF98CF80913E03813A09F093CFF3
:102CF0008091420390914303892B09F08CCF8091FE
:102D0000E800877F8093E8008091E80080FFFCCF97
:102D1000809130018093F1008091E8008E77B9CFE7
:102D200080913E03813209F076CF809142039091E9
:102D30004303892B09F06FCF8091E800877F809350
:102D4000E8000E94360880914003809330010E9481
:102D5000D41561CF80913E03813209F05CCF809120
:102D6000E800877F8093E8000E9436088091410345
:102D70008093180350CF80913E03813A09F04BCFE6
:102D80008091E800877F8093E8008091E80080FFD1
:102D9000FCCF80911803BECF803899F0823809F0BB
:102DA00076C0809142038F70873008F070C08093A6
:102DB000E9008091EB0085FB882780F91092E900FB
:102DC00006C080913A0390913B03911182609091EB
:102DD000E800977F9093E8008093F1001092F10053
:102DE0008091E8008E77B0C1882309F49DC18230BC
:102DF00009F04DC0809140038111A1C1809142032F
:102E00008F702FEF280F263008F041C08093E90023
:102E10002091EB0020FF93C1933031F48091EB00BF
:102E200080628093EB008BC19091EB009061909356
:102E3000EB0021E030E001C0220F8A95EAF72093F1
:102E4000EA001092EA008091EB008860EACF8111DD
:102E50001EC0109140031F778091E3008078812B82
:102E60008093E3008091E800877F8093E8000E94D0
:102E700036088091E80080FFFCCF8091E3008068F5
:102E80008093E30082E0111183E080933C03809102
:102E9000E80083FF0AC08091E800877F8093E80004
:102EA0008091EB0080628093EB00AA960FB6F894B5
:102EB000DEBF0FBECDBFDF91CF911F910895805827
:102EC000823028F720914003309141032C3DE3E00C
:102ED0003E07A1F583E08A838AE289834FB7F8949D
:102EE000DE01139620E03EE051E2E32FF0E0509344
:102EF0005700E49120FF03C0E295EF703F5FEF7051
:102F00008E2F90E0EA30C0F0C7968D939D932F5F8F
:102F1000243159F74FBF8091E800877F8093E80004
:102F20006AE270E0CE0101960E94E8088091E80014
:102F30008B778093E800ABCFC096E7CF80914203B8
:102F400090914303432F55274330510509F44AC05C
:102F500078F54130510509F47AC08BE590E0EAE854
:102F6000F7E04230510509F092CF2091E800277F29
:102F70002093E80020914403309145038217930782
:102F800008F49C0140E02115310509F065C04111AC
:102F900063C08091E80082FDC9CF80913C03882303
:102FA00029F2853019F28091E80083FFF2CFBECF7D
:102FB0004132510509F43CC04232510509F067CF56
:102FC0008330910508F063CFFC01EE0FFF1FEE5137
:102FD000FE4F0190F081E02D81529E4FDC018C91DB
:102FE00090E01AC0332721303105D1F02115310589
:102FF00061F02230310509F04ACFE7EFF7E0E491C4
:103000008E2F90E0E7EFF7E007C0E7E1F8E0E4910A
:103010008E2F90E0E7E1F8E0009709F438CFA5CFD4
:10302000E5E0F8E0E4918E2F90E0E5E0F8E0F4CF01
:103030008330910508F02BCF880F991FFC01E851D0
:10304000FE4F0190F081E02D89E090E08ECF82E18B
:1030500090E0E5EEF7E089CF80913C03882309F406
:1030600065CF853009F462CF8091E80083FD5ECFA3
:103070008091E80082FD8DCF8091E80080FF83CFB2
:103080009091F3008091F2002115310519F08830FC
:10309000910550F041E0089709F040E08091E80088
:1030A0008E778093E8006FCF44914093F100319682
:1030B000215031090196E8CF803809F0E8CE80919F
:1030C000E800877F8093E80080913D038093F100C2
:1030D00087CE8111DCCE10914003123008F0D7CE9C
:1030E0008091E800877F8093E80010933D030E9461
:1030F0003608112311F084E005C08091E30087FDBC
:10310000FACF81E080933C0342E061EC81E00E94D1
:10311000550842E261EC82E00E94550842E261EC0F
:1031200083E00E945508B3CE80914003813009F0BE
:10313000AECE81E0933009F080E080933B031092A3
:10314000E9008091E800877F8093E8000E943608BC
:103150009ECE1F920F920FB60F9211242F933F9382
:103160004F935F936F937F938F939F93AF93BF938F
:10317000CF93DF93EF93FF93D091E900DF708091BD
:10318000EC00C82FC17080FDC0E81092E90080916A
:10319000F000877F8093F00078940E94E9151092E8
:1031A000E9008091F00088608093F000CD2BCF7013
:1031B000C093E900FF91EF91DF91CF91BF91AF9163
:1031C0009F918F917F916F915F914F913F912F913F
:1031D0000F900FBE0F901F9018958823B1F19CEFB0
:1031E000980F913A38F4682F80EF91E00E94FA0F1F
:1031F0000C94D41090E2980F983088F4877021E0F6
:1032000030E0A90102C0440F551F8A95E2F7CA01B8
:10321000809590916B02892380936B02E9CF9BE5A7
:10322000980F933020F490E080E00C946B0998E5BF
:10323000980F973120F490E080E00C9455098D3E72
:1032400020F00E9481090C949A140895CF93C82FFE
:10325000882309F46FC08CEF8C0F813AC0F5809100
:103260003001882311F180910F0387FF1EC0EC2FDE
:10327000E695E695E695F0E0E051FE4F828190E01C
:103280004C2F477021E030E002C0220F331F4A95D7
:10329000E2F782239323892B91F06C2F80EF91E04A
:1032A0000E94FA0F0E94D4100AC0E2EFF1E088EF0A
:1032B00091E02191C21789F38E179F07D1F76C2FE8
:1032C00080EF91E00E943510CF910C94D41080E2F1
:1032D0008C0F883068F4C77021E030E001C0220F05
:1032E000CA95EAF780916B02822B80936B02ECCF38
:1032F000EBE5EC0FE33040F4F0E0EA56FE4F80815E
:1033000090E0CF910C946B09E8E5EC0FE73150F4B5
:10331000F0E0EE0FFF1FE756FE4F80819181CF91C5
:103320000C945509CD3E30F08C2F0E943C0ACF9171
:103330000C949A14CF9108951F93CF93DF93182F75
:10334000D0E0C0E0893311F4C0E5D0E0812F0E94C5
:103350002619209731F4812FDF91CF911F910C9482
:10336000ED188FE99FE00197F1F700C00000219769
:10337000F0CF0F931F93CF93DF93C62FD42F022F3D
:10338000FC0182818823A1F0609348030E948E147F
:103390009093470380934603C77081E001C0880F74
:1033A000CA95EAF7DF91CF911F910F910C946711A5
:1033B00080914803681335C080914603909147037C
:1033C0000E947F14883C910560F510E21D0FCD1717
:1033D000B9F080E28C0F883040F4C77081E001C002
:1033E000880FCA95EAF70E945C11183048F481E012
:1033F0009D2F977001C0880F9A95EAF70E94671178
:10340000802F0E949C19183098F4D77081E001C079
:10341000880FDA95EAF7DF91CF911F910F910C9405
:103420005C11C77081E001C0880FCA95EAF7F3CF3D
:10343000DF91CF911F910F910895AF92BF92CF92DC
:10344000DF92EF92FF920F931F93CF93DF93EC01E4
:103450008AE0A82EFE012491222309F494C0213091
:1034600009F03EC031968491813031F42296FE01FC
:1034700084910E949C1907C0823039F42296FE0183
:1034800084910E9426192196E5CF833031F422964B
:10349000FE0184910E94ED18F6CF843009F071C0CE
:1034A0002296FE01249190E080E0FE0131962053A7
:1034B000330B2A30310548F0019728F3EFE9FFE09C
:1034C0003197F1F700C00000F7CFA89EA001A99E98
:1034D000500D1124C901840F951F2491EF01E5CFF0
:1034E000E22FF0E0EC50FE4FB490822F8695869547
:1034F000869590E0FC01EC51FE4FE4902770F12C92
:10350000022E02C0F594E7940A94E2F731E0E32238
:10351000FF24FC01EC52FE4FC490D12C022E02C0BD
:10352000D594C7940A94E2F7E1E0CE22DD24FC01B1
:10353000EC53FE4F049110E002C0159507952A95B3
:10354000E2F701701127E114F10419F081EE0E94F5
:103550002619C114D10419F086EE0E9426198B2D6C
:103560000E949C19CD2819F086EE0E94ED18EF28D4
:1035700019F081EE0E94ED18012B09F484CF8CE242
:1035800078CFEF0180CFDF91CF911F910F91FF9006
:10359000EF90DF90CF90BF90AF9008954F925F92E1
:1035A0006F927F928F929F92AF92BF92CF92DF9253
:1035B000EF92FF920F931F93CF93DF9300D000D031
:1035C0000F92CDB7DEB77C01FC0183819481892BFA
:1035D00039F01081D180812F8D218F3F09F01AC5DC
:1035E0000F900F900F900F900F90DF91CF911F9140
:1035F0000F91FF90EF90DF90CF90BF90AF909F9092
:103600008F907F906F905F904F9008950E94880CEC
:10361000082F682F89819A810E94230DE12FF0E005
:1036200026E0D29EE00DF11D112430E3039FE00D52
:10363000F11D1124EE0FFF1FE154FD4F0591149170
:10364000F7018281882309F443C0C801905681158F
:10365000F0E29F0728F0905E8115904108F051C07C
:10366000C801992720E28C33910520F4FC01E65A29
:10367000FE4F20811F922F939F938F93F70180819C
:103680001F928F9381811F928F9381E391E09F938B
:103690008F931F9288E18F938BEA92E09F938F9391
:1036A0000E94112D0FB6F894DEBF0FBECDBF0536B8
:1036B0003DE5130709F486C030F503369DE519078B
:1036C00009F47DC08BE892E00436EDE51E0741F178
:1036D000043F8CE5180709F4B4C008F07CC0093D2C
:1036E000ECE51E0709F4A9C00A3DFCE51F0709F433
:1036F000B4C0083D2CE51207A9F426E241EE61EEC4
:1037000077C0C801AFCF0736FDE51F0709F460C0D9
:1037100008F45BC084E792E008363DE51307C1F684
:103720000E941D1AF7018281882309F484C4109233
:1037300048030430FDE51F0708F092C00B3F2CE55D
:10374000120730F4C80182509C45449708F08DC0A0
:103750000E9471119093100380930F0300318CE548
:10376000180709F455C108F0D1C00830ECE51E0770
:1037700009F43CC108F0A3C004302CE5120709F499
:1037800027C108F089C002308CE5180709F41AC176
:1037900080910F03826003301C4509F416C16091CB
:1037A0000F031091100384E090E00E94BE2F612F60
:1037B00082E290E00E94BE2F0E94D4151CC086E9D0
:1037C00092E0AECF80E992E0ABCF84E892E0A8CF60
:1037D0008DE792E0A5CF063F3CE51307D1F1A8F1B4
:1037E00027E245EE66EE073F9CE5190709F09ACF00
:1037F000C7010E94B91980916802877009F4F0CE60
:10380000F7018281882309F4EBCE82E00F900F90BC
:103810000F900F900F90DF91CF911F910F91FF901C
:10382000EF90DF90CF90BF90AF909F908F907F9060
:103830006F905F904F900C948D1527E245EE65EEEA
:10384000D7CF26E241EE60EED3CF27E245EE64EE1D
:10385000CFCF26E241EE62EECBCF28E241E0EFCFC0
:1038600002363DE5130709F473CF0631ECE51E0778
:1038700009F0EFC380916B028A7A91E009F490E03D
:103880009093110269E2811165E380EF91E00E945B
:1038900035100E94D410AFCF80910F0380610630A5
:1038A000ECE51E0709F491C080910F038860073092
:1038B0001C4508F48AC080910F03806286C0809105
:1038C0000F038D7F0C302CE5120709F47EC058F4ED
:1038D0000A308CE5180709F493C008F48BC0809176
:1038E0000F038E7F72C080910F03877F0E30ECE54F
:1038F0001E0709F46AC080910F038B7F0F301C45AF
:1039000008F463C080910F038F7E5FC00D3F2CE5EC
:10391000120709F479C068F504318CE5180709F439
:103920008BC080F40231ECE51E0709F475C080916C
:103930000F038F7B03311C4508F447C080910F03B0
:10394000837F43C00B3F2CE5120709F445C008F004
:1039500049C005311C4509F022CF80910F0382FB3D
:10396000992790F921E0922790FB82F990FB83F947
:103970002CC001309DE5190709F454C088F48091EA
:10398000100383600F3FFCE51F0749F1809110038E
:103990008D7F01151D4518F1809110038C7F1FC08C
:1039A00003303DE5130709F456C008F44EC0023653
:1039B0001D4509F0F4CE90910F03892F8F7E94FF5F
:1039C000806103C080910F03816080930F03E7CE75
:1039D00080910F038460F9CF809110038160809300
:1039E0001003DDCE809110038260F9CF80910F0328
:1039F0008064EBCF0E94D41580910F038068E5CFDF
:103A000080910F038C60E1CF809110038E7FE7CF10
:103A100080910F038F7DD9CF0E94D41580910F0321
:103A20008F77D3CF80911003982F909591708E7FD0
:103A3000892B90FB81F9D3CF0E94D41590910F036D
:103A4000892F97FB87F98058C0CF61E08EE090E026
:103A50000E94BE2FA4CE60E0F9CF0E94D415FFEFE4
:103A600024E33CE0F15020403040E1F700C000008A
:103A70000E94A30F8CE992E007C30E949712BBCE6D
:103A80008091100382FB882780F991E089270E94AA
:103A90000213F701828110810181882309F44FC04C
:103AA000812F902F0E94880CD82E682F812F902F65
:103AB0000E94230DE12FF0E026E0029FE00DF11DB2
:103AC000112430E3D39EE00DF11D1124EE0FFF1FF2
:103AD000E154FD4F859194910E94F00A8C01882E4B
:103AE000F701D280A580A2945FE0A52280916802B0
:103AF0008770A1F0CD2CDD2091F0812F807F803464
:103B000021F080E2800F883048F082E00E948D151D
:103B1000809168028770CC24C3948111C12CB12E8E
:103B2000B2943FE0B322FBE0FB1508F443C0EB2D59
:103B3000F0E0E45FFF4C0C94B52C80E0A8CF812F1F
:103B4000902F0E94FA0CD82EB5CF212F2F70A22EC5
:103B5000107F19F0A29420EFA222DD20C9F0AA2044
:103B600069F080E2800F883010F081100BC08091E6
:103B70006B02A82AA0926B020E94D410802F0E9490
:103B8000261918C080916A02A82AA0926A02F4CF6E
:103B9000802F0E94ED18AA2069F0A094005E0830E2
:103BA00010F0811045C080916B02A822A0926B0298
:103BB0000E94D410EB2DE850FF0B349710F40E94B4
:103BC000EA0FCC20A9F08091680280FD11C0F701B6
:103BD00012828595859585950E94A915C7010E9439
:103BE000CE1A809168028595859585950E946A1503
:103BF00085E0F701DE01119601900D928A95E1F7BB
:103C000089819A810E94FA0C9A81E981F0E026E08C
:103C1000929FE00DF11D112430E3839FE00DF11D13
:103C20001124EE0FFF1FE154FD4F85919491D8CCE4
:103C300080916A02A822A0926A02BACF312F3F7007
:103C4000932E107F103219F0929490EF99228820D1
:103C500071F081E0881681F1DD20D9F1AA2091F17F
:103C6000F701858180FF8ACF8F7085832BC0DD208F
:103C7000B1F090916C02892D892BA11003C00E9494
:103C8000671198CFE1E0AE12FACF2091100322FD28
:103C900091CF981709F48ECF80936C028BCFA1102F
:103CA00006C00E94780C892D0E945C1183CFF1E040
:103CB000AF1609F47FCFF5CFDD2031F025E02A15CE
:103CC00008F478CF892DDBCF34E03A1508F472CFB1
:103CD000EACFAA2041F3F9E38F1295C12FEF37EE17
:103CE00083E0215030408040E1F700C000008BC1EC
:103CF000812F86958695837061F0813009F05ACFC7
:103D0000C8019370D11002C090E080E00E94550974
:103D100051CFC8019370D11002C090E080E00E94A2
:103D20006B0948CF802FDD2029F00E943C0A0E94B9
:103D30009A1440CF0E948109FACF812F837009F035
:103D400066C0D11037CF802F829586958770880FF7
:103D5000880F602F6F70462E512C712C612C082E0D
:103D600004C0440C551C661C771C0A94D2F740E032
:103D700050E0BA0104FF0FC04FE050E060E070E097
:103D800004C0440F551F661F771F8A95D2F74095D0
:103D9000509560957095812F8695869583708230B9
:103DA00019F1D8F400916D0210916E0220916F020A
:103DB00030917002813069F04429552966297729AC
:103DC000CB01BA0160237123822393230E94CA1579
:103DD000F1CE402A512A622A732ACB01BA01642902
:103DE000752986299729F2CF4429552966297729EB
:103DF00000916D0210916E0220916F02309170025D
:103E0000CB01BA016027712782279327DFCF8695E0
:103E1000DD2011F0812F8170882309F4CBCE802F13
:103E2000829586958770880F880F602F6F70462E59
:103E3000512C712C612C082E04C0440C551C661C9E
:103E4000771C0A94D2F740E050E0BA0104FF0FC09B
:103E50004FE050E060E070E004C0440F551F661F63
:103E6000771F8A95D2F74095509560957095812F70
:103E7000869586958370823019F1D8F40091A70257
:103E80001091A8022091A9023091AA02813069F014
:103E90004429552966297729CB01BA01602371236A
:103EA000822393230E94601585CE402A512A622ADC
:103EB000732ACB01BA016429752986299729F2CF83
:103EC00044295529662977290091A7021091A80253
:103ED0002091A9023091AA02CB01BA016027712773
:103EE00082279327DFCF1F70DD2029F0812F0E94CA
:103EF000A915802FC4CE802F0E945C11812F0E94B3
:103F00006A1558CE802F92EF891609F454C098157F
:103F100078F0E0EF8E1639F1F1EF8F1609F443C017
:103F2000DD2009F46BC0A11029CE812F8F7140C014
:103F300023EF821609F444C034EF8312F1CFDD2061
:103F400009F451C01F71812F0E94A915809110039F
:103F500082FD07C0E8E01E9FC001112483608093AA
:103F60006802812F25C0DD20C9F084E08A1508F49D
:103F700021CE1F7161E070E080E090E004C0660F28
:103F8000771F881F991F1A95D2F70091A7021091E9
:103F9000A8022091A9023091AA02A0CF95E09A151B
:103FA00008F408CEE6CF812F8F71DD2009F4A7CF6A
:103FB0000E94A915FFCD812F8F71DD20C9F39FCFFE
:103FC00060E070E0CB01DD2009F46CCF1F7161E08F
:103FD00070E080E090E004C0660F771F881F991F93
:103FE0001A95D2F75FCF81E00E948D15F1E0FA15A6
:103FF00008F0E0CD82E00E948D15DCCDAA2039F0DA
:10400000893309F46BCE802F0E94ED18D3CD812F18
:104010008F7175CF85E0DE01119601900D928A9522
:10402000E1F7F701228189819A812111EFCA0E946B
:10403000FA0C082FF3CA06311C4509F02ACD8091ED
:10404000110269E2811165E380EF91E00E94FA0FAD
:1040500020CC0F3D2CE5120709F40FCDC0F401155B
:104060008CE5180709F4F9CC01301C4509F011CD95
:1040700090910903892F8E7F90FF816080930903BF
:1040800080FFF8CC8EEA92E00E940307B4CB0C3597
:10409000EDE51E0709F451CD0D35100709F4F0CCFC
:1040A0000B351D4509F0F5CC81E0F1CC1F93CF9382
:1040B000DF9380913502807FA9F4809132028823BA
:1040C00089F080916702D091360260913002709140
:1040D0003102A0913302B0913402C62FC72316E0FB
:1040E000D81304C0DF91CF911F91089590E01097ED
:1040F00011F0CF3F19F401968770F2CF189F90010D
:10410000199F300D1124F901E95CFD4F41814713DE
:10411000F2CF40814613EFCF42814111ECCF438172
:1041200054814A1B5B0B483C510528F780913502AE
:104130008F70806180933502F901E45CFD4F8081CE
:104140008F708061808380E392E00E94CE1ADF91BD
:10415000CF911F910C947E0CAF92BF92CF92DF92C1
:10416000EF92FF920F931F93CF93DF93CDB7DEB7FC
:1041700061970FB6F894DEBF0FBECDBF8C0185E00E
:10418000F801DE011D9601900D928A95E1F7F80184
:10419000E28080E3A82E82E0B82E60913302709115
:1041A00034026115710509F432C1909130024091D9
:1041B0003102892F84238F3F09F429C12081318165
:1041C000C380D480F0903202F601E61BF70BFF208B
:1041D00009F4E8C080913502582F507FE83CF10582
:1041E00008F0ABC0511177C0FE2C431321C09213CD
:1041F0001FC0E1101DC08F70806180933502C50122
:104200000E94CE1A80913502F80185838F2D619628
:104210000FB6F894DEBF0FBECDBFDF91CF911F91D7
:104220000F91FF90EF90DF90CF90BF90AF900895E7
:10423000CD2829F0822F83238F3F09F003C180E02E
:10424000F82FF170DF2E80FF3CC080916702409113
:10425000360256E0841315C02D873E878D859E85D6
:104260000E94DF0C292F22952F702230F0F024308D
:1042700018F59F70F1F0F8019581907FD1F4D12C61
:104280001EC090E0589FF001599FF00D1124E95C89
:10429000FD4F6181361306C06081261303C0628121
:1042A000E6120FC001968770D5CF9F7011F088235A
:1042B00031F3805E883018F3C8010E94CE1AFD2CBD
:1042C000A5CFEE2009F4A2CF8091350281608093C2
:1042D0003502F12C9BCF431306C0921304C0F801A2
:1042E000EE2009F479C0C8010E94510D882309F11C
:1042F000EE20F9F080913502803270F0209130028A
:104300003091310238872F831986DB86CA868C87E5
:10431000CE0107960E94CE1A86E0F801A0E3B2E033
:1043200001900D928A95E1F70E945620FF24F394A4
:104330006DCFC8010E94CE1AF9CF51110AC080E397
:1043400092E00E94CE1A86E0F50111928A95E9F773
:10435000C0CF43130FC092130DC0E1100BC0F80182
:104360008583C8010E94CE1A86E0F50111928A95D4
:10437000E9F74CCFC8010E94510D8823D1F2EE20FD
:10438000C1F280913502803238F2209130023091B2
:1043900031023A8329831B82DD82CC828E83CE0157
:1043A0000196B8CFE83CF105F8F6FE2CEE2009F2B4
:1043B00043131FC092131DC08091350280FD10C0B1
:1043C000982F907F69F0F8018583903F31F0982F06
:1043D000907F905F8F70892B8583C8010E94CE1AD1
:1043E00086E0F801A0E3B2E001900D928A95E1F732
:1043F0000DCFC8010E94510D81118ECF80913502E1
:10440000816080933502C8010E94CE1AFFCEEE2053
:1044100009F48FCFC8010E94510DF82E882309F4AA
:1044200088CF86E0F801A0E3B2E001900D928A9572
:10443000E1F780913002909131020E94DF0C0E94DE
:104440005620E4CE81E08E25FBCE1F93CF93DF93E1
:10445000CDB7DEB767970FB6F894DEBF0FBECDBFFE
:104460004B8B5C8B6D8B7E8B8F8B611110926A02F4
:104470001A8A198A85E0FE017396DE011D96019065
:104480000D928A95E1F786E0FE013D96DE011796D2
:1044900001900D928A95E1F7CE0107960E94AC201B
:1044A000882389F016E08091670290913602891383
:1044B00049C067960FB6F894DEBF0FBECDBFDF913F
:1044C000CF911F91089586E0FE013796DE01119687
:1044D00001900D928A95E1F78A859B85892B11F3CE
:1044E0008F81988589238F3FE9F22091360230E051
:1044F000C9010196877099274091670248171906EC
:1045000071F40E94D415109236021092670286E070
:10451000E0E3F2E0DF011D928A95E9F7C3CF96E070
:10452000929FD001939FB00D1124A95CBD4FFE0155
:10453000319601900D929A95E1F7809336020E9490
:104540007E0CB0CF819FC0011124895C9D4F0E94D9
:10455000AC20882309F4ADCF8091670290E00196EA
:1045600087709927809367029ECF9F92AF92BF92E8
:10457000CF92DF92EF92FF920F931F93CF93DF932F
:10458000CDB7DEB72C970FB6F894DEBF0FBECDBF08
:104590008E010F5F1F4F88E0F80111928A95E9F7AD
:1045A00089ECC82E81E0D82EF12CE12CAA24A3940A
:1045B000B12CF60181916F018F3F09F449C0F89445
:1045C000E82FE295EF70F0E021A18F70A50102C005
:1045D000440F551F8A95E2F7CA01922F982B91A399
:1045E00092A18095892382A3789400C0E1EDF1E047
:1045F00030E020E0912C41914F3F09F470C0A42F8E
:10460000A295AF70B0E090968C9190E04F7002C090
:10461000959587954A95E2F780FD61C08A2D022E17
:1046200001C0880F0A94EAF7982A2F5F3F4F26307F
:10463000310509F7F601319780818F3F11F00E9413
:10464000960A50EA5A95F1F7F801EE0DFF1D908297
:104650008FEFE81AF80AE4E0EE16F10409F0A9CFAA
:1046600048E050E0B80185E992E00E94FB2C7C0113
:10467000892B41F088E0F801A5E9B2E001900D92A4
:104680008A95E1F710919E02E114F10451F181E065
:10469000809373020E948E14909372028093710231
:1046A00080917102909172020E947F14059790F0A0
:1046B000E12FF0E0E156FD4F8091950280838091DB
:1046C00096028183809197028283809198028383EE
:1046D00010927302EF2849F081E090E057C080E02B
:1046E000A3CF809173028111DBCF0E94C70FF82EF8
:1046F000E0919E02882309F491C019861A861B86D0
:104700001C860E2F10E001561D4FE0907B02F9E051
:10471000FE1508F44DC02FEE31E142E451E0BE0138
:10472000675F7F4FC8010E947B10882309F454C043
:104730002FE731E14FE451E0BE01675F7F4FC801D1
:104740000E947B10882309F447C049E04E1508F405
:104750005CC010927B02A0919D02B0E0A156BD4FBB
:10476000BE01675F7F4F9E01235F3F4F80E04D9109
:10477000FB019191BF01491731F0AD014150510941
:10478000FA0190838F2D6217730789F72C960FB665
:10479000F894DEBF0FBECDBFDF91CF911F910F9177
:1047A000FF90EF90DF90CF90BF90AF909F900895D3
:1047B00080917402909175020E947F14843F914011
:1047C00008F0A9CFE0919D02F0E0E156FD4F108284
:1047D00011821282138280CF80917B028F3F31F051
:1047E0008F5F80937B028A3008F4B5CF0E948E14CD
:1047F00090937502809374028091090380FFE2CF49
:1048000081EE94E00E940307DDCF8091090380FFD1
:10481000A0CF8EEC94E00E9403079BCFF0E0E1561E
:10482000FD4FF89484E0A5E8B2E001900D928A95DE
:10483000E1F785E892E00E94A507809384027894CE
:10484000F894C0908902D0908A02E0908B02F09098
:104850008C028091760290917702A0917802B091BB
:104860007902C816D906EA06FB06D1F0C092760294
:10487000D0927702E0927802F09279020E94C70FFC
:1048800081110EC00E944909C61AD70AE80AF90A1E
:10489000C0929102D0929202E0929302F09294021E
:1048A000789480E073CF1F921FB61F9211248F93CC
:1048B0009F93AF93BF9380910A03811113C080919E
:1048C0000B0390910C03A0910D03B0910E03419640
:1048D000A11DB11D80930B0390930C03A0930D03B6
:1048E000B0930E03BF91AF919F918F911F901FBE08
:1048F0001F901895CDB7DEB763970FB6F894DEBF5B
:104900000FBECDBF84B7877F84BF0FB6F894A8953C
:1049100080916000886180936000109260000FBEFB
:1049200080E890E00FB6F894809361009093610066
:104930000FBE85B7806885BF85B7806885BF8DEA63
:104940009EE09093EF018093EE010E94BC070E94CD
:1049500087088091E20084608093E20078948091DF
:104960003C038823A1F01091E9001F709091EC00A6
:10497000892F817090FD80E8182B1092E9008091BA
:10498000E80083FD0E94E9151F701093E90082E0A2
:1049900084BD93E095BD9AEF97BD80936E00109211
:1049A00091021092920210929302109294028EE061
:1049B00090E00E94B02F91E0811101C090E09093AF
:1049C0001E010E94C70F81110E94C02A80911E0102
:1049D00080911E0194E0811190E090939E0284E00A
:1049E000891B80939D0284E90E94960A86E60E94B4
:1049F000960A87E90E94960A86EC0E94960A01EDC3
:104A000011E0A7EDEA2EA1E0FA2ED8018D918D01DB
:104A10008F3F11F00E94960AE016F106B1F7E5E922
:104A2000F2E08DE992E0AFE9B2E011921D928E17AB
:104A30009F07D9F790E080E00E94B82F893E9E4FF3
:104A400011F00E94971282E090E00E94B02F8093B4
:104A500009030E9471119093100380930F030E9429
:104A6000B522EFE3FCE93197F1F700C000000E94A6
:104A7000B5228EE090E00E94B02FE4E08111E0E0EA
:104A8000F0E0E156FD4F808181FF08C06FEF7FEFBE
:104A900090E080E00E94DC2F0E94A30F83E090E072
:104AA0000E94B02F682F70E090E080E00E94CA154D
:104AB0000E94C70F811102C00E94C32A0E94C70F23
:104AC00081116AC082E08093E30280E88093490309
:104AD0000E9458296DE070E081EB95E00E94510E34
:104AE000892B09F45BC085E995E00E9403078FE1FB
:104AF00091E090930603809305038EEB95E00E946E
:104B000003078FE992E038E0380F398B80913C033E
:104B1000853079F486ED96E00E94030700E112E10A
:104B200080913C03853009F486C00E94D4150E9410
:104B3000EA0F0E94B522582E81110E94490978EE91
:104B4000672E72E0772EEFE9CE2EE2E0DE2E10E047
:104B500000E0F1EDAF2EF5E0BF2E402EF6013190D2
:104B60006F01D3012D903D0123109DC00F5F1F4F9A
:104B70000830110591F78FEF8C878D871E860E9474
:104B80008E148160782F988B8F874C855D856E851C
:104B900088890E942522B0C080E095CF8091E302F1
:104BA00063E070E081FD09C082E995E00E94510E4A
:104BB000892B61F08CE695E098CF89E695E00E941C
:104BC000510E892B19F081E595E08FCF6DE070E0F3
:104BD00084E495E00E94510E892B19F08DE295E056
:104BE00084CF0E944909605A75418F4F9F4F60934F
:104BF000FD027093FE028093FF0290930003ECE4A9
:104C0000F3E080E092E0DF019C011D9221503040F2
:104C1000E1F7F0935305E09352058FEF9FEF9093E8
:104C20004B0380934A0381E0809302038093010346
:104C30001092E4025CCF80913C03843021F1109209
:104C40000A0388E190E0A0E40FB6F894A895809359
:104C500060000FBEA093600083B7817F846083BF34
:104C600083B7816083BF7894889583B78E7F83BF35
:104C70000FB6F894A89580916000886180936000D9
:104C8000109260000FBE80913B03882309F448CF47
:104C90000E94B522EFE9F2E081918111E9C2B98960
:104CA000BE13FACF3DCF8091090381FD5CC123245F
:104CB000E12CFF24F394822D8F2109F486C10E94F8
:104CC000C70F882399F0EF8248863F2081E009F4DE
:104CD00080E089870E948E148160782F9B878A8765
:104CE0004F81588569858B850E942522F801E851FE
:104CF000FD4F8081F826F082809102038823C9F15C
:104D00008091E5029091E6020E947F14C29708F01C
:104D100062C120914A0330914B032115310509F0FE
:104D2000B2C180910103882321F10E9449090091B9
:104D3000FD021091FE022091FF0230910003601BE2
:104D4000710B820B930B6F3F7F4F8F4F9F4788F400
:104D500080910203882369F062E070E08AEB96E0BC
:104D60000E94510E892B09F470C285EA96E00E94D8
:104D7000030751100E94810E86E0E7EFF2E0DE01AA
:104D8000119601900D928A95E1F7F090F902E0906A
:104D9000FA021091FB020091FC021092F9021092AB
:104DA000FA021092FB021092FC028F2D8E2909F458
:104DB00048C08091F5029091F6020E947F149C01F8
:104DC0009091F202992309F46EC223333105C8F1A0
:104DD0009F3F19F09F5F9093F202FF2059F00E94CD
:104DE0001C0A9FEF1F140CF491E0899F802D112461
:104DF0008093F902EE2059F00E941C0A9FEF1E14C6
:104E00000CF491E0899F802D11248093FA02309157
:104E1000F9023323B1F02091FA02222391F045EBFD
:104E20003403C0011124992309F412C29093F902AA
:104E300045EB240390011124332309F40DC2309370
:104E4000FA02812F802B09F448C08091F3029091DF
:104E5000F4020E947F149C019091F002992309F4BE
:104E60001DC225363105C8F19F3F19F09F5F909311
:104E7000F002112359F00E94FA099FEF11160CF469
:104E800091E0899F802D11248093FB02002359F02B
:104E90000E94FA099FEF10160CF491E0899F802D73
:104EA00011248093FC023091FB023323B1F0209156
:104EB000FC02222391F045EB3403C0011124992315
:104EC00009F4CEC19093FB0245EB24039001112419
:104ED000332309F4C9C13093FC028091F902909107
:104EE000FA02892B9091FB02892B9091FC02892B6D
:104EF00011F00E949A1486E0FE013196A7EFB2E00D
:104F000001900D928A95E1F70E94EA0F9091E702D5
:104F1000891709F4FBCD0E94EA0F182F8093E7024E
:104F20008091090382FFF2CD80FFF0CD83EC96E003
:104F30000E9403078091090380FFE8CD1F921F9311
:104F40008EEB96E09F938F930E949C0780910903BC
:104F50000F900F900F900F9080FFD8CD8CEB96E0C4
:104F60000E940307D3CD8EED95E00E9403076FE901
:104F7000862E62E0962EF12CE12CFF92EF92E9ED65
:104F8000F5E0FF93EF930E949C0786ED95E00E9469
:104F90000307D4018D914D010E94780D1F928F93CC
:104FA000BF92AF920E949C078FEC95E00E9403078E
:104FB000BFEFEB1AFB0A0FB6F894DEBF0FBECDBFF2
:104FC000F8E0EF16F104C9F672CEE394FF0C26E088
:104FD000E21271CECBCD0E948E149093E6028093A4
:104FE000E5028CE493E090935305809352050E9470
:104FF000C70F882309F442C086E096E00E94110E94
:105000008091A7029091A802A091A902B091AA0252
:105010008F309105A105B10560F4FC01E85EFF4CFD
:105020000C94B52C81E096E00E94110E81E00E9464
:105030001F0E0BEA12E0D8010D900020E9F78D0158
:10504000015011095BEAE52E52E0F52EE016F1065B
:1050500078F080910203882309F463CE5ACE8DEF55
:1050600095E0E2CF85EF95E0DFCF8DEE95E0DCCFE8
:10507000F70181917F010E94900DE8CF8EE096E0CC
:105080000E94110EE6CF8091E40261E070E0811190
:1050900048CE082F10E07B01082E02C0EE0CFF1C4A
:1050A0000A94E2F7A9014E215F21452B29F1909145
:1050B000E30290FD23C08295880F807680932B01B8
:1050C0009801369527953695279520932E01815E78
:1050D00080932C0110922F0124E630E047E050E04D
:1050E00069E271E088E70E94072A892BA9F082E82B
:1050F00096E00E94030715CE8F5FCBCF880F880FF5
:10510000880F80932B0110922E01895F80932C01D0
:1051100083E080932F01E0CFA80125E0440F551FC5
:105120002A95E1F78091E30280FD10C0445B5C4F5B
:1051300004E610E020E230E060E488E70E942E2AD6
:10514000892B09F473C089E696E0D3CFE3ECF2E053
:1051500080E2DF011D928A95E9F7EBEDF1E0FB8B30
:10516000EA8B07ED11E08FED682E81E0782E97E055
:10517000A92E99249394AA89BB892D91BB8BAA8BC4
:10518000F80121908F01240E352E311CC101845B62
:105190009C4F1C01E22FF0E0ED53FD4F30E020E08A
:1051A0004A2C421AB92C022E01C0BB0C0A94EAF711
:1051B000610190E0D6018D916D018B21642D691BF9
:1051C0006770862E062E000C770BB82F01C0BB0F20
:1051D0008A94EAF78B2E719561957109677077272C
:1051E00001C086956A95EAF7882A8081882A80829C
:1051F0009F5F9830F9F62F5F3F4F31962830310589
:1052000079F6EA89FB896E167F0609F0B4CF04E6C9
:1052100010E020E230E043EC52E060E488E70E94D6
:105220002E2A892B19F08EE496E063CF0E94810E1E
:10523000E094F09480914A0390914B03E822F92284
:10524000F0924B03E0924A036CCD1092010391CD92
:1052500081E08093F902ECCD81E08093FA02F1CDF8
:1052600081E08093FB0230CE81E08093FC0235CE5A
:1052700009BD19BD09B400FEFDCF8091D8008F7D16
:105280008093D8008091E00082608093E00080915C
:10529000E00081FDFCCF0E94D41542CC2D3231407C
:1052A00008F0E4CD1ACE2D32314008F093CDC9CDAF
:1052B0001092B9008CE08093B80008959F92AF924D
:1052C000BF92CF92DF92EF92FF920F931F93CF93F3
:1052D000DF93B82EEB010E948E146C01EE24E39450
:1052E000F12CC431D10560F025E0E22EF12CCF3F46
:1052F000DC0731F0CE0164E170E00E94812C7B017B
:1053000084EAA82E94E8992E1092BC00A092BC00CA
:105310000E948E148C018091BC0087FF0DC080918B
:10532000B900887F883039F18091B900887F803159
:1053300011F10FEF1FEF09C00E948E14801B910B1B
:105340008E159F0540F30EEF1FEFCF3FDC07E1F214
:10535000C6010E947F148C179D07B0F2C801DF912F
:10536000CF911F910F91FF90EF90DF90CF90BF9062
:10537000AF909F900895B092BB009092BC000E94A5
:105380008E148C018091BC0087FF0AC08091B90007
:10539000887F883111F0803461F610E000E0DECFC4
:1053A0000E948E14801B910B8E159F0558F3CBCF56
:1053B0000F931F93CF93DF93EB018093BB0084E89F
:1053C0008093BC000E948E148C018091BC0087FFEA
:1053D00011C02091B900287F81E090E0283211F4BB
:1053E00090E080E0919581959109DF91CF911F9197
:1053F0000F910895CF3FDC0741F30E948E14801B6C
:10540000910B8C179D0708F38EEF9FEFEECFCF9295
:10541000DF92EF92FF920F931F93CF93DF936B0175
:105420008A017901B9010E945E29E6010C0D1D1D5A
:10543000C017D10761F424E92093BC00DF91CF911C
:105440001F910F91FF90EF90DF90CF90089597FDFF
:10545000F2CFB70189910E94D829EACFCF92DF928B
:10546000EF92FF920F931F93CF93DF93C62F6A01A2
:105470007901B8010E945E2997FD0CC0B8018C2FFC
:105480000E94D829E601EC0CFD1CCE15DF0511F0B9
:1054900097FF0CC024E92093BC00DF91CF911F91AE
:1054A0000F91FF90EF90DF90CF900895B801899110
:1054B0000E94D829EACF84E98093BC0008958EE148
:1054C0004A9B02C08150E1F74A9BFECF08955A984B
:1054D00080E28A95F1F75A9A0895FC013BE03A95EB
:1054E000F1F798E020E080E031E040E14A95F1F703
:1054F000880F4A9B02C08160232742E04A95F1F75A
:10550000000040E14A95F1F7915079F790E19A95C2
:10551000F1F799B132E03A95F1F7000040E14A9590
:10552000F1F792FB992790F992272081920F9083AF
:105530000895EF92FF920F931F93CF93DF930F92F3
:10554000CDB7DEB719828C017C01E60EF11C0E1579
:105550001F0561F481E09981911180E00F90DF9146
:10556000CF911F910F91FF90EF9008950E945F2AB5
:10557000CE0101960E946D2AF80181938F01E7CF39
:10558000529A5A9A089552985A9AEA9AE9E6F0E09D
:1055900080818F7C808308956150770B91E001C0FA
:1055A000990F6A95EAF720E031E0911108C02223B3
:1055B00091F05A9A80E28A95F1F75A980895492F06
:1055C000482339F05A9A232740E24A95F1F79695F5
:1055D000ECCF5A98F9CF5A98EDCFFF920F931F93C3
:1055E000CF93DF93EC018C01060F111DC017D1077B
:1055F00031F4DF91CF911F910F91FF900895F990B1
:105600000E94672A68E08F2D0E94CC2AEFCF1F925C
:105610000F920FB60F921124EF92FF920F931F93E8
:105620002F933F934F935F936F937F938F939F93AA
:10563000AF93BF93EF93FF93CF93DF930F92CDB7C9
:10564000DEB719820E945F2ACE0101960E946D2A60
:10565000A82FA695A695A695282F229525709A2F56
:105660009570290F922F937026952695920F982763
:1056700097708981982B09F075C0A43008F072C02A
:1056800080E18A95F1F75A9A529AB2E0BA95F1F709
:1056900000C05A98EA2EF12CEAE0AE9FD001112406
:1056A000A050BF4F1896ED91FC9119973097B1F02B
:1056B0006091C7017091C80116962D913C91179782
:1056C000260F371F13968D919C911497680F791FA1
:1056D00015964C91159712968C9109958AE08E9D9E
:1056E000F0018F9DF00D1124E050FF4F658166237E
:1056F00051F02091C7013091C80186819781820FB6
:10570000931F0E94ED2A0E94672AF0E1FA95F1F7B3
:105710005A9852985A9A80E18A95F1F78AE08E9DBC
:1057200080018F9D100D112400501F4FD80112963B
:105730006C911297662371F12091C7013091C801D5
:1057400013968D919C91820F931F0E94992AD801E4
:10575000ED91FC91882311F088E001C082E0808304
:105760000E945F2A0F90DF91CF91FF91EF91BF913F
:10577000AF919F918F917F916F915F914F913F91E9
:105780002F911F910F91FF90EF900F900FBE0F90F0
:105790001F901895ED91FC91DFCF0F931F93CF933E
:1057A000DF93EC0104970CF0A9C08AE08C9FF00114
:1057B0008D9FF00D1124E050FF4F80819181892B46
:1057C00009F49CC0F894529A5A9885E08A95F1F7AA
:1057D00000008C2F869585709C2F9570890F982FCF
:1057E000937086958695890F8E0193E0000F111FA7
:1057F0009A95E1F7082B0E94672A00C068E0802F85
:105800000E94CC2AA0E1AA95F1F752985A9A4A9B95
:1058100027C087E090E04A9925C08AE08C9F8001EC
:105820008D9F100D112400501F4FF80165816623D4
:10583000A1F12091C7013091C80186819781820F23
:10584000931F0E94992A811128C0529A5A9AD8010E
:10585000ED91FC9182E08083789482E090E016C024
:1058600000C0D5CF0197B9F4529A5A9A8AE08C9F1A
:10587000F0018D9FF00D1124E050FF4F0190F08159
:10588000E02D81E08083789481E090E0DF91CF91FA
:105890001F910F91089500C0BECF0E945F2AB0E211
:1058A000BA95F1F75A98529AE0E1EA95F1F78AE051
:1058B0008C9FF0018D9FF00D1124E050FF4F62810D
:1058C000662351F02091C7013091C80183819481F2
:1058D000820F931F0E94ED2A0E94672A8AE08C9F04
:1058E000F0018D9FF00D1124E050FF4F0190F081E9
:1058F000E02D1082789490E080E0C8CF84E090E0C2
:10590000C5CFAA1BBB1B51E107C0AA1FBB1FA6170F
:10591000B70710F0A61BB70B881F991F5A95A9F758
:1059200080959095BC01CD010895991B79E004C044
:10593000991F961708F0961B881F7A95C9F78095CE
:10594000089597FB072E16F4009407D077FD09D031
:105950000E94812C07FC05D03EF4909581959F4FC5
:105960000895709561957F4F0895EE0FFF1F059084
:10597000F491E02D09942F923F924F925F926F9293
:105980007F928F929F92AF92BF92CF92DF92EF92CF
:10599000FF920F931F93CF93DF93CDB7DEB7CA1B50
:1059A000DB0B0FB6F894DEBF0FBECDBF09942A887B
:1059B000398848885F846E847D848C849B84AA8423
:1059C000B984C884DF80EE80FD800C811B81AA81B0
:1059D000B981CE0FD11D0FB6F894DEBF0FBECDBF7B
:1059E000ED010895FB01DC0102C005900D924150CC
:1059F0005040D8F70895FB01DC0104C08D9101905F
:105A0000801921F441505040C8F7881B990B089524
:105A1000FB01DC0102C001900D9241505040D8F7CB
:105A20000895AEE0B0E0E7E1FDE20C94C92C0D89E9
:105A30001E898F89988D26E02C831A83098397FF0E
:105A400002C080E090E801979E838D83AE01455EA1
:105A50005F4F698D7A8DCE0101960E94412D4D8157
:105A60005E8157FD0AC02F813885421753070CF419
:105A70009A01020F131FF80110822E96E4E00C9495
:105A8000E52CABE0B0E0E7E4FDE20C94BB2C7C013C
:105A90003B018A01FC0117821682838181FFB9C113
:105AA0009AE0292ECE0101965C01F7019381F30162
:105AB00093FD859193FF81913F01882309F446C1AD
:105AC000853239F493FD859193FF81913F018532B1
:105AD00029F4B70190E00E94222FE7CF912C412CAE
